:1000000000180020C1000000ED340000B1340000F1
:10001000B1340000B1340000B1340000B13400004C
:10002000B1340000B1340000B1340000ED34000000
:10003000ED340000B134000049490000514900008E
:10004000ED340000ED340000ED340000ED3400002C
:10005000ED340000ED340000ED340000ED3400001C
:100060000D2E00001D2E0000ED340000ED340000C8
:10007000E9540000ED340000ED340000ED340000E0
:10008000ED340000ED340000ED340000ED340000EC
:10009000ED340000ED340000C54B0000ED340000ED
:1000A00029390000ED340000ED340000ED3400008B
:1000B000ED340000ED340000ED340000ED340000BC
:1000C000F8B503F017FA0821474A484B1A60484A26
:1000D000484B1A60484A494B1A60494B1A780A4201
:1000E00002D01A780A431A702A22464B46481A70E0
:1000F00000234649464C1A188A4203D2E558043375
:100100001560F8E70021434B434A934201D202C3F2
:10011000FBE70023414A424958589446985004331B
:10012000C02BF9D100210326FF2580248A083D4BEE
:100130009200D2180B002F003340DB009F40106864
:100140000131B84307002000984003003B4313608F
:100150002029EBD16246344B1A608A22334B1A7045
:10016000334B663A5A707C321A709E3A9979114232
:10017000FCD0102299791142FCD10C209A792C499B
:100180000240082AFAD1053A0A713D324A71203AF2
:1001900099791142FCD0402299791142FCD025492D
:1001A000254A11602021224A117014399A790A4097
:1001B0000C2AFBD1214A224B1A60224A224B1A6098
:1001C0000022224B1A60224B07321A60214A224B2E
:1001D0001A6062B603F0DEF903F092F906F028FB2C
:1001E00004F01CFDFEE7C046300004F034800440FB
:1001F000823F0000388004400100000F3C80044032
:1002000002D0074000E0074040FEFF1F60060020CC
:1002100060700000600600202810002000F9FF1F19
:100220000000000000E400E008ED00E0005006409F
:10023000004006400000011044800440C000050555
:10024000048004407FBB000014E000E018E000E000
:1002500010E000E00000202020ED00E0FFFFFFFFA5
:10026000FFFFFFFFFFFFFFFFFFFFFFFFFFFFFFFF9E
:10027000FFFFFFFFFFFFFFFFFFFFFFFFFFFFFFFF8E
:10028000FFFFFFFFFFFFFFFFFFFFFFFFFFFFFFFF7E
:10029000FFFFFFFFFFFFFFFFFFFFFFFFFFFFFFFF6E
:1002A000FFFFFFFFFFFFFFFFFFFFFFFFFFFFFFFF5E
:1002B000FFFFFFFFFFFFFFFFFFFFFFFFFFFFFFFF4E
:1002C000FFFFFFFFFFFFFFFFFFFFFFFFFFFFFFFF3E
:1002D000FFFFFFFFFFFFFFFFFFFFFFFFFFFFFFFF2E
:1002E000FFFFFFFFFFFFFFFFFFFFFFFFFFFFFFFF1E
:1002F000FFFFFFFFFFFFFFFFFFFFFFFFFFFFFFFF0E
:10030000FFFFFFFFFFFFFFFFFFFFFFFFFFFFFFFFFD
:10031000FFFFFFFFFFFFFFFFFFFFFFFFFFFFFFFFED
:10032000FFFFFFFFFFFFFFFFFFFFFFFFFFFFFFFFDD
:10033000FFFFFFFFFFFFFFFFFFFFFFFFFFFFFFFFCD
:10034000FFFFFFFFFFFFFFFFFFFFFFFFFFFFFFFFBD
:10035000FFFFFFFFFFFFFFFFFFFFFFFFFFFFFFFFAD
:10036000FFFFFFFFFFFFFFFFFFFFFFFFFFFFFFFF9D
:10037000FFFFFFFFFFFFFFFFFFFFFFFFFFFFFFFF8D
:10038000FFFFFFFFFFFFFFFFFFFFFFFFFFFFFFFF7D
:10039000FFFFFFFFFFFFFFFFFFFFFFFFFFFFFFFF6D
:1003A000FFFFFFFFFFFFFFFFFFFFFFFFFFFFFFFF5D
:1003B000FFFFFFFFFFFFFFFFFFFFFFFFFFFFFFFF4D
:1003C000FFFFFFFFFFFFFFFFFFFFFFFFFFFFFFFF3D
:1003D000FFFFFFFFFFFFFFFFFFFFFFFFFFFFFFFF2D
:1003E000FFFFFFFFFFFFFFFFFFFFFFFFFFFFFFFF1D
:1003F000FFFFFFFFFFFFFFFFFFFFFFFFFFFFFFFF0D
:10040000FFFFFFFFFFFFFFFFFFFFFFFFDEF9FFFF23
:1004100010B5064C2378002B07D1054B002B02D0DA
:10042000044800E000BF0123237010BD60060020D7
:100430000000000060700000084B10B5002B03D0D6
:100440000749084800E000BF07480368002B00D1B7
:1004500010BD064B002BFBD09847F9E700000000C9
:1004600064060020607000006006002000000000AC
:100470000122014B1A707047C50700200122014B71
:100480001A707047A40600207047FFFF30B585B092
:1004900002AC05000100200001F006FC012D08D18E
:1004A000207801F057FC044B02B21A60034B001491
:1004B000186005B030BDC046D8080020C007002035
:1004C00010B5040004F04EFB200010BD10B502F082
:1004D00033FF10BD10B502F04BFF10BD70B5040026
:1004E00008000D0006F0AEFA2368020029005B68E0
:1004F0002000984770BDFFFF70B5040000208242C5
:100500000BDB064D531EAB4207D818235A43013A62
:10051000232A02D9200004F0CBFA70BDAFAAAA0AA0
:100520000023F7B5144D0001144E64302860336089
:1005300001933468072C1EDC2F683800FFF7C6FFD4
:100540000F4B012218550F4B002801D06A46127933
:10055000781C1A552860FFF7B9FF0B4B012218557C
:100560000A4B002801D06A4612791A550237013425
:100570002F603460DDE7F7BD58FEFF1F1C0C002024
:1005800070FEFF1F5107002064FEFF1FB806002009
:10059000F8B5002301261A4C00011A4D6430206082
:1005A0002B602B68072B2ADC174F9A00D05917496C
:1005B000174A002802D1CE54D05401E00020C8547C
:1005C000D15C2068FFF786FF23681249581C2B680E
:1005D00020601A0008329200BF580F4A002F02D143
:1005E000CE54D75401E00027CF54D15CFFF772FFFF
:1005F0002368013323602B6801332B60D1E7F8BDFA
:1006000058FEFF1F1C0C002010070020510700207F
:1006100070FEFF1FB806002064FEFF1F70B5102497
:10062000274D2000FFF752FFA300403B0134E85064
:10063000202CF6D1234D2000FFF748FFA300803B7C
:100640000134E850302CF6D11F4D2000FFF73EFF5B
:10065000A300C03B0134E850402CF6D11B4D2000D4
:10066000FFF734FFA300013BFF3B0134E850502C5F
:10067000F5D10020FFF72AFF154B18600120FFF786
:1006800025FF144B18600220FFF720FF124B186063
:100690000420FFF71BFF04000520FFF717FF0F4B97
:1006A000C001041906201C60FFF710FF040007209A
:1006B000FFF70CFF0A4BC00104191C6070BDC04657
:1006C00074070020C8070020540800209808002064
:1006D000A8060020DC080020C80600200C07002027
:1006E000AC060020F8B50600170004000D1AA31B85
:1006F0009F4205DD2000FFF7E9FE28550134F6E7AB
:10070000F8BDFFFF002110B5080094B0FFF7E2FE2E
:1007100000210120FFF7DEFE01210220FFF7DAFEB3
:1007200001210320FFF7D6FE14210420FFF7D2FE9B
:1007300000210520FFF7CEFE24210620FFF7CAFE88
:100740003F210720FFF7C6FE1024A300194A403BB3
:10075000D1582000C9B20134FFF7BCFE202CF4D1DF
:10076000A300154A803BD1582000C9B20134FFF7DD
:10077000B1FE302CF4D1A300104AC03BD158200068
:10078000C9B20134FFF7A6FE402CF4D1A3000C4AF5
:10079000013BFF3BD1582000C9B20134FFF79AFE5C
:1007A000502CF3D1220069460020FFF79BFF14B0C4
:1007B00010BDC046B86A0000B86A0000F86A0000C0
:1007C000F86A000000B5002095B0FFF77FFE012811
:1007D00002DDFFF797FF04E0502269460020FFF793
:1007E00081FF15B000BDFFFFF0B59D4889B002F054
:1007F000BFFF002301259B4C23602368072B11DCDE
:10080000994A9B0098580221C0B202F057FF236812
:10081000964A9749D5540022CA549649CA5401337E
:100820002360EAE702210F2002F048FF01210C209B
:1008300002F044FF002323602368022B10DC012117
:100840000C2002F01BFF642002F092FF00210C201C
:1008500002F014FF642002F08BFF23680133EAE703
:10086000FFF7B0FFFFF7DAFE0320FFF72FFE013896
:1008700043424341804E814A3360814B00201A60DD
:1008800001F00AFA102001F0FBF9042001F0FEF952
:100890000D2002F09FFC0023236023680F2B29DC2E
:1008A000382004F0C3F98023DB0043608123DB059B
:1008B000036100230027012205000362431D027526
:1008C0003900DF776F4B02F0C2FB23686E499A0054
:1008D00055508021890169608421C90529616B49CE
:1008E00057506B4957503168B94201D06949575048
:1008F0000133D1E733680126674C684A617B05966E
:100900000492002B4BD01223002502939B190395D0
:10091000019300952A002133206901F0BBFC9E233E
:1009200021694F4A9B00CA505D4B617B049303953C
:1009300002950195009505962B002A00206901F08B
:10094000A9FC08352900200001F0B0FD0023627BDE
:10095000009321690133200001F016FF002811D116
:10096000202D02D101224F4B08E0602D02D101223F
:100970004D4B03E0312D02D101224C4B1A70012066
:1009800002F0F6FE0135EDB2782DDBD1484C494935
:100990002000FFF7A3FD200004F02EF912E0122240
:1009A00002920132039301920093320034232069B2
:1009B00001F070FC9A2223693F49920099503F4907
:1009C000043299503E4C3F49636D01251868036815
:1009D000DB6998472300220058331D7000235A32E8
:1009E0001370220059321370374A6366A266E266BA
:1009F000364A236612683648079222000799FC326D
:100A000051602100F8310B70210075310B7021000D
:100A100074310B70210076310B70210077310B702F
:100A2000136002332B43703423702A4C2A49226806
:100A3000FFF762FD226829492948FFF75DFD294C2F
:100A40002900207802F03AFE274B1B68002B04D0C7
:100A500020682900C0B202F011FE09B0F0BDC04606
:100A6000102700009C060020586A0000B4070020F0
:100A700051070020B806002094080020150C000043
:100A8000D80E002017B7D138CC060020140800205B
:100A900010070020200C0020980D0020801A06006E
:100AA000A086010009080020C4070020800D002056
:100AB000F0040020386B00008D040000511C000081
:100AC000700C0020127A0000FFFF0000B40D00201F
:100AD000640C00206CFEFF1F7D0400007104000008
:100AE0000C08002078FEFF1FA80600207D2330B5EB
:100AF0000025ABB014AC23706E3BE3700C3B23714C
:100B0000124B28001B6850226371114B69461B6809
:100B10006570A3710F4BA5701B68E371FFF7E2FDD1
:100B200028006B461B5CFF2B00D1803B2218013054
:100B300013725028F5D100225821200003F0EEFA5C
:100B40000122054B1A702BB030BDC04660FEFF1F5E
:100B5000080C002054FEFF1F7C060020F8B505009D
:100B60000E0017000400631B9F4206DD731B195D16
:100B70002000FFF7AFFC0134F5E7F8BDB0B56C46D7
:100B8000D91DC908C900611A00AF00248D469C42D6
:100B900004DA85182D5D0D550134F8E738691A001F
:100BA000FFF7DCFFFFF73AFDBD46B0BD002307B5F8
:100BB000092200935033FFF7E1FF07BD002307B57B
:100BC000052200931033FFF7D9FF07BD73B510243A
:100BD00005222300009405000E00FFF7CFFF30230D
:100BE00031000093280023001522FFF7C7FF73BDD3
:100BF000202337B505220093103B0D000400FFF7BA
:100C0000BDFF4023290000931522303B2000FFF751
:100C1000B5FF37BD10B5022922D943787D2B1FD1EE
:100C20008378002B1CD1C378002B19D103790D2BAD
:100C300011D006D80B2B11D00C2B11D1FFF7C6FF0A
:100C40000EE00E2B04D01F2B0AD1FFF74FFF07E059
:100C5000FFF7ACFF04E0FFF7B1FF01E0FFF7C8FFCB
:100C600010BDFFFF036810B50400002B01D07430E5
:100C70009847230075331B78F22B00D183E020D8EE
:100C8000C02B66D00ED8902B34D004D8802B00D047
:100C900096E0A36851E0A02B4ED0B02B00D08FE09F
:100CA00063694AE0E02B31D004D8D02B00D087E034
:100CB000E3694FE0F02B56D0F12B00D080E0A36A1F
:100CC00074E0FA2B1AD00CD8F62B75D003D8F32B7E
:100CD00076D1236B6AE0F82B0ED0F92B70D1236C00
:100CE0006BE0FC2B0ED00BD3FE2B0DD0FF2B67D16E
:100CF000236D62E0E36820E0A36B5EE0E36B5CE001
:100D0000636C5AE0A36C58E0E36C56E0226A002A58
:100D100056D0230077331978FE23C9019B0119406F
:100D20002300763318787F2303401943254B74340E
:100D3000C9182078904743E02369002B40D0220057
:100D40002100773274347631127809782078984708
:100D500036E0A369002B33D0220074347632117848
:100D6000207898472CE0626A002A29D02100763149
:100D70000B78497809021943802900D98021200085
:100D8000783090471CE0E16A002919D023007733BE
:100D90001878FE23C00102009B011A407F2376349D
:100DA000207803401A431000884709E0002B07D041
:100DB00076342078984703E0636B002B00D0984787
:100DC00010BDC04600E0FFFF10B5006803681B6857
:100DD000984710BD0B000833DBB210B5072B08D8BD
:100DE00001229A401300DD22134202D00068FFF76F
:100DF000EBFF10BDF7B5019308AB1B780600013B74
:100E0000DBB20D0017000F2B16D849B2002913DAF8
:100E10000B43D9B2406DFFF7D7FF7F243900706DC7
:100E20002140FFF7D1FF10239D43C02D04D001992D
:100E3000706D2140FFF7C8FFF7BD13B504AC2478EF
:100E4000E02903D80094FFF7D5FF04E0F72902D981
:100E50005430FFF7BFFF13BD73B5050070350400B4
:100E600028780A00C307DB0FDBB2002B00D18AE031
:100E70000121884300D186E02100753109780800FE
:100E80008038C0B2602820D82000743000789042AA
:100E900002D053425341DBB22A785208022A04D0CE
:100EA000032A05D0012A6ED104E0002B6BD001E0AB
:100EB000002B68D123002200773376321B7812781A
:100EC00000902000FFF7B9FF5DE00800F0380F2820
:100ED00059D804F01DFC0D422D23585808580858C5
:100EE00008080858080820005430FFF773FF4AE04C
:100EF000230076335978250009021A780B007835DB
:100F00002E001343802B00D98023ED18AE423AD037
:100F10003178606DFFF758FF0136F7E72300F321C2
:100F20007633606D1D78FFF74FFF7F21294027E062
:100F3000230077331D78013B1B78ED011D43F2211F
:100F4000606DFFF741FF7F262900606D3140ED099C
:100F5000FFF73AFF2900314012E0230076331D7875
:100F600070232D012A001A40230077331D780F23A8
:100F70002B401A431500F121606DFFF725FF290072
:100F8000606DFFF721FF73BD010030220300914324
:100F90000120802909D01A00EF2130320A4204D002
:100FA000C03B180043425841C0B27047002342B2D0
:100FB0009A420BDA02000C32D2B2012A06D9FD287D
:100FC00004D00300EF2801D80F2293431800704784
:100FD000F7B502F099F9354D354B364A6B651A6015
:100FE0002B00002458331C702B0059331C702B002D
:100FF0005A331C70304B2C60AB666C60AC60EC609C
:101000002C616C61AC61EC612C626C62AC62EC6274
:101010002C636C63AC63EC632C646C64AC64EC6454
:101020002C652C666C66EB662B00032270331A70FD
:101030002B0074331C702B0075331C702B0076331F
:101040001C702B0077331C702B0080272800F8338E
:101050003A001C702100783005F02DFC2B00FC3389
:10106000DC605C609C602B00144EFF33320014493E
:1010700028005C739C7304F044FB05230722009353
:10108000082101330F4800F077FE0F4D0F48320062
:1010900029000771046004F034FB0D483200290078
:1010A0000771046004F02DFBF7BDC046700C0020F2
:1010B0006C0C0020CC040020FFFF000040FEFF1F4E
:1010C0008904000084060020C1040000640C002094
:1010D0000C080020F7B515001C000F23AB429B4104
:1010E00066005B42089AF3180F4E9B000F4F9A510F
:1010F0000F4B104E41181A8038001312C9B2B3704A
:10110000F27001F0D3F931003800042235707470A8
:1011100000F0A6FE00237A7B009339693800013382
:1011200001F032FBF7BDC046E8080020980D002012
:10113000180C00200C0C0020F0B5BF4C87B0230029
:1011400058331B780393102B00D9AAE1636D1868FC
:1011500003681B699847002800D1A2E127000126F7
:10116000FF37BB7BB343BB73636D186803685B6970
:1011700098476B4604901D7CFD2D00D191E1636E74
:10118000002B00D098E0270023005B373D705933D7
:101190001B7818000593FFF709FFFFF7F5FE0028FD
:1011A00009D0049B1B0606D46B461B7D66663B700C
:1011B00023005C331D7023005B331D782800FFF78C
:1011C000F5FEF12836D014D8B02835D006D89028AE
:1011D00032D0A02830D080283BD12DE0D02829D093
:1011E00002D8C02826D034E0E02825D0F02826D028
:1011F0002FE0F72823D005D8F3281BD01CD3F628DE
:1012000004D026E0FC2801D9FE2822D323002200A6
:101210007533187000237432137022007632137005
:1012200022007732137022000121F83211706366B8
:10123000236615E1022300E0032323661AE08023DE
:1012400023662300002259331A7023007833187064
:1012500010E022000120FF32937B184340B29073CC
:101260006368002B00D098470023636623665934D7
:10127000237016E1226E636E013A934200D2ECE0D5
:101280002300753318700F20230028402200743388
:101290000130187023005C32127876331A70220005
:1012A0000023773221001370636601222366230036
:1012B000FC310A60F833CEE0049A12064BD52A00BE
:1012C0001032D2B20F2A46D83100914081220A4012
:1012D00015D1DF20000201423DD0230075331D707F
:1012E000230076331A70230077331A702300743387
:1012F0001A702300FC331E602300F833A6E022009E
:1013000078321278F02A01D0F72A1FD15A1CE3183C
:1013100078331D702300F021753319702300763364
:101320001A702300110A77331970210000237431D9
:101330000B702100FC310A6022000121F83211708B
:101340002200593263662366137089E0B87B064336
:1013500070B2B87384E722005B321278F02A01D0B1
:10136000F72A02D1E218783201E0E2185B321570F8
:10137000276E7A1E934270D323005B331E78F02EC3
:1013800001D0F72E25D12200F023F7321578137003
:101390002200753213702200703B763221001370E8
:1013A000002277310A70210074310A702200FC3269
:1013B000136023000122F83320001A70FFF752FC5B
:1013C0002300F72278331A70230079331D7002232B
:1013D00044E03000FFF7EAFD230075330500187084
:1013E000FFF7D2FD22007432002804D00F233340CF
:1013F0000133137000E01070220023005C32127879
:1014000076331A700023032F02D123005D331B783B
:1014100022007732137000236366236623000122C3
:10142000F8331A70B02D0FD008D8902D0CD0A02D05
:101430000AD0802D0CD107E0700C0020D02D03D0F5
:10144000E02D01D0C02D03D1230059331E7007E0D9
:101450002300002259331A7002E00133636620E052
:10146000230075331A78902A05D12200773212783A
:10147000002A00D19EE0230075331B78803BDBB24D
:10148000602B00D999E0230074331B78039A9342B0
:1014900000D192E0002A00D18FE003992000FFF7ED
:1014A000DBFC002002F0AAFE474B1B78002B00D18A
:1014B00087E0464B46491A78464B474C1A60474BE3
:1014C0001B780B6046490878464908604649097808
:1014D0002160464C26682500454CB2420AD1266858
:1014E000B34207D1434E3668B04203D1424E36680C
:1014F000B14266D02A603F4E3F4D23603060296084
:101500000A2B11D1902A5CD10300243B132B58D80D
:101510008F3A3C33DBB20092002104323120FFF7D6
:10152000D9FD336818332BE0092B4ADC902A09D007
:10153000B02A2CD0802A44D100211333DBB2009191
:101540000A0033E001220092002213331100DBB2C3
:101550003120FFF7BFFD30682768153805F0CEF859
:10156000264904F00FFE05F0A7F81337FFB20090EC
:101570003B00102200213120FFF7ACFD23681D3312
:1015800082212A68DBB24A43009210220DE0020059
:10159000213A012A15D82722212800D00A329B1887
:1015A00082225143DBB20091723A00213120FFF7D1
:1015B00091FD06E080221A705DE72000FFF752FBE4
:1015C0006BE707B0F0BDC046800D0020E00F0020A3
:1015D00070070020C4060020E4080020E70F002068
:1015E000E40F0020E0080020E50F0020B4060020F2
:1015F00080060020140C002098060020A68A0843CC
:101600000022F0B5CE4B87B01A60CD4F3A680F2A52
:1016100000DD3FE1CB4B9100CB58CB4CD811844639
:101620002060CA48CA4D08582B6084450FD1C9486C
:1016300008587F2803D0C84808587F2803D1C748D6
:101640004058834203D1C648007800287CD0C54862
:10165000006800280DD0C4480668002E09D1C34E8A
:1016600036680596059E3000C14E30600126BE48A2
:101670000660072A02DCBF48825C03E0BE4882188D
:10168000083A1278002A59D1B24A5658BB4A7F2EDE
:101690001FD1BB481B18BB48834200DD0300B8487C
:1016A000834200DA0300802080011B185058F0228A
:1016B000FE21C0B20138120100021040B24AC90333
:1016C00010431A040A401043FE225B04D205134063
:1016D00012E0FE233604DB031E40AC4BFE201E430B
:1016E0006346C0051B0603405058F022C0B20138C3
:1016F0000002120133431040184302F0C7FC3B685C
:10170000A3489E00944BF258A24B9C467F2A0BD1D3
:101710002968CB0913400A4061468959DBB2C9B236
:101720000091D2B2E02107E0614689592368C9B22D
:101730000091B021DBB2D2B2FFF75CFB824A3B687A
:101740001168824A9B0099503B68072B54DD1900B1
:10175000914A924C0839505C645C84424CD0904E63
:10176000525C31608F4C904D002A00D03CE1814AA0
:10177000525C002A03D0754A8800825862547E4A1F
:10178000525C002A03D0714A9B009B586B54874ED1
:101790006B5C625C715C7E4800919021FFF72AFBD4
:1017A000FE20FE217E4BC0031A68C905A35C1B0402
:1017B0001840AB5C1B060B4003437D480343B05C01
:1017C000F0220138120100021040184302F05EFCC2
:1017D000784B1B78002B09D001223B680092002235
:1017E0001100083BDBB23120FFF774FC6C4B6A4AF6
:1017F0001B68D15C694AD1546F4B514C1B68002B5C
:1018000044D02068524D554983002A685B58934262
:101810003CD06A4B034004D50421013B49420B43B1
:1018200001330321C617314008188010C1B2644843
:10183000644F654E0078DBB23B703170002804D0F5
:10184000009260201122FFF745FC5A4B1B78002BB9
:1018500007D02A6823780021009231201122FFF757
:1018600039FC5A4B1B78002B09D031782A68490083
:101870003B78C9B2009220200622FFF72BFC2A6891
:10188000236803920399354A9B00D15023680133A2
:101890002360BAE600220121314B4D4C1A704D4BAA
:1018A0004D4D1B6820780B402B704C4E98420DD04C
:1018B000934208D032704A4A0C2013785940117074
:1018C00001F0DCFE00E031702B7823703378002BC0
:1018D00017D00023434C23602068072811DC2E4BCF
:1018E0001F5CFFB2002F09D1FEF752FE01223C4BD4
:1018F00001210C2037701A7001F0C0FE23680133FB
:10190000E9E7374E3378002B00D19AE02B78002B93
:1019100000D196E00023334C23602068072800DDC7
:101920008FE01D4B1D5CEDB2002D06D1FEF7F8FDDA
:1019300029000C20357001F0A1FE23680133EBE78C
:10194000B0060020140800206807002010070020BF
:101950005C0700205408002098080020200C00207C
:101960007C060020DC080020BC070020B40D00200D
:10197000600C002051070020B806002074070020EA
:1019800000E0FFFFFF1F00000EE000000BB00000B2
:10199000700C0020C807002060070020B40700205A
:1019A000A006002070FEFF1F64FEFF1F4CFEFF1FFD
:1019B00009900000800D00209408002003000080A2
:1019C000C4070020C0060020A5060020090800204A
:1019D0005CFEFF1F900000F86C0700200808002044
:1019E000500700201C0C002017486B5C625C415CB7
:1019F000164800918021FFF7FDF9FE20FE21326894
:101A0000C003A35CC9051B041840AB5C1B060B405C
:101A100003430D490E480343885CF022013812014C
:101A200000021040184302F031FB0A4B1B78002BD8
:101A300000D1DBE600213B680A00083BDBB20091E5
:101A4000D1E607B0F0BDC0464CFEFF1F700C002071
:101A500008800000800D0020F0B5664B87B0196843
:101A6000654A664B00291BD065490968059165499F
:101A700005980968323181420BD218681168C0B2EA
:101A8000002900D0012101F0F9FD00225E4B1A600F
:101A90000EE018681268C0B20021002A06D104E0E6
:101AA00018681168C0B2002900D0012101F0E6FDDC
:101AB00000230125554E336033680F2B00DD82E093
:101AC000534A9B009958534800F074F9002001F0E4
:101AD000ABFB3368504F514C9B00010038601859E4
:101AE00001F090FA336801939B0003931B59DA6A63
:101AF0004B4B3A601B68002B02D04A4B9B1A3B6051
:101B0000494B3A681C68494B18682300A24203DB22
:101B10001300824200DD0300021B029210D01B1B47
:101B20009C03E41A1300D20FD21852101419190092
:101B3000200003F08BFE029B5C43E40F041B00E0DB
:101B4000384C3B4B039A3C609C50019B072B36DC86
:101B500035D81800374B03F0DBFD040A10161C22A1
:101B6000282E354A126852082A401A7027E0334A54
:101B70001268120C2A405A7021E0314A1268520849
:101B80002A409A701BE02F4A126852092A40DA70E4
:101B900015E02C4A126892092A401A710FE0284A6F
:101BA000126892082A405A7109E0234A1268920882
:101BB0002A409A7103E0234A12682A40DA71019B95
:101BC0000133336078E7204C2378002B05D0FFF7F2
:101BD000B3FA72B60023237062B61C4C2378002B34
:101BE00005D0FFF70DFD72B60023237062B607B073
:101BF000F0BDC046DC080020A806002078FEFF1FCC
:101C0000B40D0020600C0020BC0700209C060020C2
:101C1000786A000084060020100C0020CC0600200A
:101C2000C8060020FF1F00000C070020AC060020A3
:101C30001408002060070020100000F8500000F891
:101C4000900000F8D00000F8C5070020A40600208E
:101C5000084B094A1B6870B59B00D458074DA4B2C5
:101C6000210A280000F0C9F82800E1B200F0C5F808
:101C700070BDC046D808002014080020980D002030
:101C8000014B18607047C04680FEFF1F014B186073
:101C90007047C04684FEFF1F01235840014B187057
:101CA0007047C0467CFEFF1FF0B587B005001022CC
:101CB000002102A804F0FFFD0024234B1A78234BD7
:101CC0001869234B07001969FC370E00FC36019692
:101CD000002A09D0FB6BBE6B9B1B9C46664601230A
:101CE000012E0CDC00230AE0019B019EDB6BB66B2E
:101CF0009B1B9C4666460123012E00DC131CDBB2B5
:101D0000002B0BD0042CE3D0002A00D1080000F0F7
:101D10004EFDA30002AAD0500134CEE7002A00D124
:101D2000080000F044FDA40002AB18512800049BF9
:101D3000059A1B020192D318029A1BB22A70039AC9
:101D40006B606A7007B0F0BD7CFEFF1F980D00202D
:101D5000840D002013B50400054B1B681C41054B86
:101D600024B2196803F058FE240488B2204316BD3B
:101D700084FEFF1F80FEFF1FF8B516001D00040043
:101D80000F00C8B2012101F099FCF0B2012101F06D
:101D900095FCE8B2012101F091FC069B0121D8B22B
:101DA00001F08CFC069B27606660A5602000E36064
:101DB000F8BDFFFF70B505000A4E0C01A15D00786B
:101DC000341901F05BFC2879217901F057FC287A5D
:101DD000217A01F053FCE868E168C0B2C9B201F0B1
:101DE0004DFC70BD88FEFF1F002070470369FC3367
:101DF000DA6B986B101A7047704730B591248123C5
:101E00000269A40015595B009D4208D81359581C5B
:101E1000D3183D33FF3310511970012002E0012324
:101E20000371002030BDFFFF922270B50B4B920072
:101E300008330360036904009A5C022A0BD19D22D7
:101E400092009D58002D06D0280002F039FD08218F
:101E5000280002F0EFFE200070BDC046546B000069
:101E600070B50369050091201400812280001E587E
:101E70005200964218D804261A5818583D33FF3697
:101E8000FF33B21A1B18A24202D20120140028719B
:101E90002200180004F006FD9122296992008B5857
:101EA0002000E3188B5002E0012300202B7170BD4D
:101EB00010B5002809D10C4B9C5C8C420ED09A18AE
:101EC00013798B420ED1042008E001280AD1064B79
:101ED00000209A18137A8B4205D10830024B18184B
:101EE000C07800E0002010BD786B000010B5040041
:101EF00001F01AFC2368C01A10BDFFFF0023037114
:101F00000373074BFA2208330360A7239B00417336
:101F10005943044B92005918826001617047C046D2
:101F2000546B000088FFFF1FF7B5C36804001B78DF
:101F30000D0000209B0600D5A0E08023A1680B7057
:101F4000E1686E3B0B704E4BE35C012B05D0824287
:101F500004D192239B00E25400E01A000120531E9A
:101F6000834200D98AE0002D02D18021490003E09C
:101F7000012D03D180218900424B1960022A79D1B9
:101F80009D26B600A3590193002B07D1082002F02B
:101F90004DFE0700019902F047FCA751A659002EFB
:101FA00010D03379042B0DD1300002F089FC3000C1
:101FB000082102F03FFE9D2300229B00E2500120F9
:101FC0002C3B5AE0002D25D1802132682E48D36861
:101FD0000B43D36031792D4A0B0010339B0098508E
:101FE0004B11284A9B009B181F2211401E3A8A4021
:101FF00080211A6033680906DA680A438021DA60B2
:10200000DA6889050A43DA603379214A9B181D7022
:10201000962226E0012D25D1802132681D48D36803
:102020000B43D3603179194A0B0010339B00985051
:102030004B11144A9B009B181F220A409540802197
:102040001D6033680906DA680A438021DA60DA68BD
:1020500089050A43DA6033790D4A9B1800221A7009
:1020600097321A7000220C4B0120E2540232163BC8
:10207000E25403E0922301209B00E054FEBDC046E1
:102080004902000000E100E00D2E000000F9FF1FF2
:10209000001002401D2E00005E020000F8B50C008A
:1020A000FA21050089002000170003F045FBFA2102
:1020B00006028900380003F03FFB0100300003F006
:1020C0003BFB00231D499A0052580E001202904219
:1020D00003DB0133372BF6D101E0002B2AD0591E48
:1020E0008A00B2581202821AD717D2197A409F007A
:1020F000F7593F02C01BC717C0197840824219DC4C
:102100000F4B6A685B5C890013707158200003F004
:1021100013FB94239B00E8500A4BAD699C4202D903
:1021200004232B7008E00849200003F005FBC0B22F
:10213000287001E01900E3E7F8BDC046886B000095
:10214000646C0000FF6BDC02001BB700F0B587B0C9
:1021500001930CAB1B78040002930DAB1F780EAB00
:102160001B78049115000393002F07D0002B05D096
:10217000C36800201B789B0600D581E0012229005E
:102180000498FFF795FE3F4B0600E25C05939542ED
:1021900002D1002F6ED028E0002E26D0002F0AD0CA
:1021A000059BE05C93239B00E15CC0B24B1E994110
:1021B000490001F083FAE02302993202DB00134068
:1021C0006422002900D0032213430C226A432E49C3
:1021D0008A1852681360059B6A46E5549323127A65
:1021E0009B00E25401224C33E254022201990498EC
:1021F000FFF75EFE254F019AE35D05009A4203D189
:10220000039B002B39D002E0002806D130E0002EDD
:102210002ED000282CD0012032E0039B002B09D0C7
:1022200093239B00E15CE05D4B1E9941C0B24900E5
:1022300001F044FAE023029ADB002D021D406423E2
:10224000002A00D003231D430C23019A53430E4A56
:10225000D3185B686A461D606B461B79127AE3559A
:1022600093239B00E2540122094BE254002ED2D169
:10227000002005E0002E9ED1B7E70028DAD1F7E76D
:1022800007B0F0BD4A020000D46C00004B02000011
:1022900099020000F0B589B011AE3678040018003C
:1022A0000EAB0D0019780FAB1B78069613AE36787F
:1022B000049310AB05921B780796002D03D1324F83
:1022C00040223E6804E0012D04D180222E4F3E685A
:1022D00016433E606A462D4E127D2D4FA2550022B8
:1022E0009446E255059A6769624501D1202218E0BB
:1022F0002822002900D1083A3A702768002903D023
:102300004A00D2B2814201D94200D2B23A700022D0
:10231000E769914205D04200D2B2814201D9490019
:10232000CAB23A70049A002A03D11A4AA25CD2B205
:102330000492002B02D1184BE35CDBB2174A290050
:10234000A25C20000292A6229200A25C0192069A50
:102350000092049AFFF7FAFE129A012D01D110495A
:1023600000E010492000FFF799FE079A290020009D
:10237000FFF7DAFDA25DA368002A01D1803200E0F8
:10238000C0221A7009B0F0BD348004404902000038
:10239000550200004A0200004B02000099020000B2
:1023A000006CDC0200366E01F0B585B004000D0053
:1023B0001700019301F0B8F90390002F02D19E237A
:1023C0009B00E75801F0B0F92026A36803901A7823
:1023D000324202D0B4221A7025E0002F04D003A8A4
:1023E000FFF784FD874208D9E3681B783340F4D1B6
:1023F000294AA354B023A2681370A3681E7820232F
:102400001E4010D10622254BE2543B33E2580132E4
:1024100002D0E2580132E2509C239B00E358002B8B
:1024200036D0984734E01E4B1B78002B12D19223F4
:102430009B00E35C013B012B0CD801F07DF8194AAD
:10244000FF23002D08D0012D06D11168090A0B4089
:10245000834203DA01261BE01168F8E70F2803DC4A
:102460000126019B1E7013E00300103B002D09D0D4
:10247000012D07D10C4811682E00014018020843B5
:10248000106005E0FF211068884318431060E1E701
:10249000300005B0F0BDC046490200005502000002
:1024A000AC0D002008E400E0FF00FFFF9E2302695E
:1024B00049005B00D1549122012103699200995097
:1024C0000022024902715A547047C046550200006A
:1024D000F0B585B01D0002ABDE1C002333709123E4
:1024E0009B00C35804001700002B00D1E0E0002D32
:1024F00002D19E239B00C5585020A2691378034344
:102500001370A26930381378834313701223E26882
:102510002000137033002A00FFF746FF002800D187
:10252000C6E092239B00E35C002B02D03278002AA5
:1025300019D001F0F9F808235E4E0390A3559523B6
:102540009B00E75427003B1B019391239B00E3581A
:102550003A1B9A425ED2002D40D003A8FFF7C6FC7A
:1025600085423BD856E0591E012900D9A0E0082039
:10257000504960540139675414396250022B24D1F8
:1025800091239B00E258042A1FD901214A4AA154F1
:10259000E1581632A058494A0339036891420BD8D2
:1025A00022003F32FF321A60D868454A0240A0201C
:1025B000C0030243DA60996022695A60D968414ACF
:1025C0000A40802189020A43DA60F023A26813706E
:1025D0009E2252002369A25C1A7069E03B003D33E1
:1025E000FF331B78226913700222E3681B781342C1
:1025F00006D1002DF8D003A8FFF778FC8542F3D868
:102600000222E3681A70002D29D003A8FFF76EFCA0
:10261000854224D895239B00E25CA368012A01D15E
:10262000802200E0B0221A7091239B00E358019AA7
:102630009A420BD20123A355A0239B00E2580132FA
:1026400002D0E2580132E2509C2302E00023A3555D
:1026500098239B00E358002B2AD0984728E01021AC
:10266000E2681378DBB20B4207D00423A355117044
:10267000A2687C331370A323DFE70137DB0700D4A4
:1026800061E7019B002B03D10233A355A12302E094
:102690000323A355A2239B00E258013202D0E25843
:1026A0000132E2508023A2681370F133FF33D1E787
:1026B00005B0F0BD550200005E020000FFFF0F00F4
:1026C000FF0F8EF0FFF0F0F000B501690B4B020038
:1026D000CB5C581E05280AD803F01AF80703050733
:1026E0000E07022009E0032007E0042005E010792E
:1026F000431E9841C0B200E0012000BD5502000019
:1027000073B50400150001F00FF80190002D02D1FF
:102710009E239B00E55801F007F80190184EA35D39
:10272000072B21D9002DF9D001A8FFF7DFFB854247
:10273000F4D801A8FFF7DAFB85420ED892239B005C
:10274000E35C022B09D10F4BE35C002B05D0A35DAA
:10275000072BFCD801220A4BE254A35D072B06D9B4
:102760000122074BE25402E0002DF6D0E1E74023BE
:10277000013BFDD1A05D43425841C0B276BDC04689
:10278000550200005E02000070B515000C00060046
:1027900029001A002000049BFFF79AFE2900049AE2
:1027A0002000FFF7ADFF3000FFF78EFF70BD020085
:1027B000FC32916BD36B994206D2936B591CC318B0
:1027C00091633033187801E001204042704710B522
:1027D0000069FFF7ECFF10BD0300FC33996BDA6B67
:1027E000914204D29B6BC0183030007801E0012088
:1027F0004042704710B50069FFF7EEFF10BDFFFFC4
:10280000F7B5CD4F82693B7804000133DBB23B70F2
:10281000C3683D001E789C468368F6B2197812782A
:10282000C9B2D2B2019210208A0614D5C34A01421D
:1028300008D0A15C022900D1CBE0A15C032900D023
:10284000F6E0C6E0A15C022900D11FE2A15C0329E9
:1028500000D0F9E11AE2064210D063461870730600
:102860000CD45021A26913780B4313700222E36841
:102870001A703B78013BDBB23B70C0E24020304035
:1028800048D0AF4FE35D0C2B05D19A239B00E25853
:10289000002A00D0ACE20423AA4A1E4020D007330D
:1028A0009126E3550023A168B600A351D0330B70E5
:1028B00023691B785B08A3549B239B00E358002BE0
:1028C00000D098479E23A2595B00002A00D1E25411
:1028D000E35C22691370902301229B00E25010E018
:1028E0002020A1690B7803430B700C23E3552300D0
:1028F000FC33DE63C023A1680B7023691B785B087F
:10290000A3545021A26913780B4313700222E36889
:102910001A7040E0102319401FD00F3B1E4014D105
:102920009022912392009B00A158E358994206D22D
:10293000A358591CE3183D33A150FF331E78236977
:102940001E70D023A26813703AE0C023A2681370EF
:1029500023691B787A4BE05432E07948235C0C2BD6
:102960002ED15026019B33421AD0A26913783343EB
:102970001370A269303E1378B34313700223E268E8
:1029800013709A239B00E3582154002B03D0FC348E
:10299000A163E06B98472B78013BDBB22B702EE2F2
:1029A00021002369FC311A788123C86BD2B25B0005
:1029B000984205D8CB6B581CE3183033C8631A70A3
:1029C0005021A26913780B4313700222E3681A7036
:1029D00015E29D21802089006158400409688F68B4
:1029E000074200D0F7E0A35C032B14D163461B78A9
:1029F0005BB2002BFADA80208B68400403438B60C3
:102A00000023A354912390229B00E3589200013BA2
:102A1000A350A35806E0E0238A68DB051A42BAD027
:102A2000E6E02358E3183D33FF331B7822696CE757
:102A30004349615C082960D1370007400ED000236C
:102A4000A35404223E496254624610708022A16859
:102A50000A70C132FF32A35002335DE0012006400C
:102A600090208000002E19D0A7542258002A04D1AB
:102A7000334902326254A12203E0032230496254F6
:102A8000A2229200A158013102D0A1580131A150D7
:102A900080221A700223E268137094E09121275873
:102AA00089000137275061588F420ED3244AA6541B
:102AB000013AA25C012A01D17F3200E0B0221A70F3
:102AC0000223E268137098237EE0A15C0129A8D15B
:102AD0000131A154F1221A709D2380209B00E358FC
:102AE000C0051A68D3680343D3603E23FF33E35C19
:102AF00022691370E36819704DE71149615C092977
:102B000045D106420CD004230D4AA35463461870E5
:102B10008023A26813707E3BE2681370A32347E012
:102B20000220F10710D5064AA054D63AFF3A1A708F
:102B3000E3681870A1233BE0AC0D00205E020000AA
:102B40005502000056020000A65C012E10D1A054D0
:102B5000E1221A709D2380219B00E358C9051A6861
:102B6000D3680B43D36023691B78E368187012E7BE
:102B70000A22A349625496229200A258012A01D146
:102B8000E73200E0E0221A7023691B78BEE69C4A17
:102B9000A25C012A14D195229200A25C012A01D1E3
:102BA0007F3200E0B0221A700223E2681370A02383
:102BB0009B00E258013206D0E2580132E25002E0B6
:102BC00080221A7052E69C239B00E358002B00D110
:102BD000E1E69847DFE6A75C022F00D003E7F0228A
:102BE00088601A70874BED3AE254E3681F70D2E6B2
:102BF00080228B68520413438B608A600022A521D7
:102C0000804B8900E2547E4B0732E25460581A0030
:102C1000431C02D0635801336350F30610D50423DC
:102C2000A354A3239B00E258013202D0E2580132A0
:102C3000E250102362461370902300229B00E25062
:102C40008023A268137025E722009620FC32D16B06
:102C50008000205802316A4E814278D0A15D01295E
:102C600003D16949615C002971D09621D36B890039
:102C7000615801338B4200D383E0A35D012B69D1FE
:102C8000614BE35C002B00D07BE063E09D21802062
:102C900089006158400409688E6806424BD1A25CE5
:102CA0005848032A2ED180268A68760432438A60E7
:102CB00000222254B0321A70962322009B00E3585F
:102CC000FC32013BD363D36B591CD1632269E318F7
:102CD000127830331A7095239B00E35C012B05D1E9
:102CE0000F33013BFDD18023A26813700223E268F9
:102CF00013700022424BE2540F33E358934200D04A
:102D000067E748E6E0228E68D205164200D142E627
:102D100080268A68760432438A6000228E6007210A
:102D20002254374AA154D63AFF3A1A700223E26875
:102D30001370A5233CE7A65C022EB0D1E822886080
:102D40001A70304BE53AE254E3681E7023E6E8213E
:102D500019708AE7D36B591CD1632269E318127882
:102D600030331A700223E2681370A35DDBB2012BCB
:102D700000D010E6244AA15C002900D00BE6A35441
:102D800009E60021204BE154A168AE3BFF3B0B70EC
:102D9000D36B591CD1632269E318127830331A704F
:102DA00095239B00E35C012B05D11023013BFDD152
:102DB0008023A26813700223E2681370A35D012BC5
:102DC0000DD1A0239B00E258013202D0E25801321B
:102DD000E2509C239B00E358002B07D1C5E700225B
:102DE000074BE2540F33E3589342BED09847BCE7F9
:102DF00023000021FC339963D86B90474BE5F7BD66
:102E0000550200005E0200005D02000010B50021C6
:102E10000148FFF7F5FC10BD88FFFF1FA72310B581
:102E200003489B000121C018FFF7EAFC10BDC04613
:102E300088FFFF1F70B50B4C00212000FFF75EF8E4
:102E4000094E0A4D32002900200002F05AFC084CBD
:102E500001212000FFF752F832002900200002F083
:102E600050FC70BD980D002040FEFF1F291E000081
:102E7000840D0020081CFE2110B5890502F042FED9
:102E8000011CFE20800502F0B3FF011CFE2080051E
:102E900003F08CFA011C02F035FEFE218905041CAA
:102EA00002F0E6FD002801D1201C01E0FE20800593
:102EB00010BDFFFFF0B5037B85B004000D0001934A
:102EC000002B2CD0037D002B29D0080003F016FC2A
:102ED0002669071C311C02F0B7FD002806D06800E7
:102EE00003F00CFC311C03F061FA15E06368180074
:102EF000029303F003FC311C03F058FA011C381C48
:102F000002F0B6FD00280AD0029B6D00E81A03F01B
:102F1000F5FB311C02F0F6FD03F0CEFB0500A769BE
:102F2000280003F0EBFB391C03F040FA0021061CDB
:102F300002F09EFD331C002802D180231B06F318EB
:102F4000181C02F0C7FD256A0390291C301C03F0F1
:102F50002DFA2B4903F016F9291C02F0D3FD019B31
:102F6000051C2062002B21D0002102F081FD0028E9
:102F700002D180231B06ED1823696A4601930123C1
:102F800001991372281C02F05FFD002802D1002372
:102F90006A4613726A46127A631DDA770199281C11
:102FA00002F052FD002801D0381C25E0039803F000
:102FB000EDFBA16803F0E6F8011C2000FFF75AFFC3
:102FC000011C301C03F0DEF8391C02F09BFD0026CA
:102FD000A061311C051C02F037FD00280AD163688E
:102FE000581E03F08BFB061C011C281C02F040FD40
:102FF000002800D0A661A06903F05EFB05B0F0BD1B
:10300000CDCCCC3EC36A10B5040081620363FFF7E8
:1030100051FF236BE062181A431E9841343420702C
:1030200010BD70B50C1CFE2105008905201C02F0A6
:103030001FFD002807D10021201C02F005FD0028FB
:1030400003D0002401E0FE24A405AC6070BDF7B5F8
:10305000CEB204000D00300000211F1C019200F0D0
:103060002DFB3000002100F009FB6B461B79256029
:10307000391C23732000FFF7D4FFF7BDF8B5802477
:103080001F4B1868204002D001F0F8FDF8E772B637
:103090001C4C2378002B30D01B4B1F681B4B1A682D
:1030A0001B4BBA181E681B4B92191D681A4B5219FC
:1030B00019681A4B52181B68194DD21892B252084F
:1030C000184B2A4392B21A60174B18491B68184ACA
:1030D0009C46184B1B6812680F68174963440E68BA
:1030E00016499B180968DB199B195A1893B25B089B
:1030F0002B43134A9BB21360207062B6F8BDC046E2
:1031000024B00340AE0D002038B003403CB0034073
:1031100040B0034044B0034048B003404CB00340CB
:103120000080FFFF2CB0034058B0034064B0034060
:1031300060B003405CB0034068B003406CB0034033
:1031400030B003401B4B1C4A19781C4B082901D195
:10315000002102E00A2903D12E311160132206E07A
:103160000C2901D1283100E03C21116012221A60A3
:10317000134B1A78134B002A01D0002200E00122E1
:103180001A60114B1A78114B012A01D880220CE0E9
:10319000042A01D8842208E0082A01D8852204E004
:1031A000102A01D8862200E087221A600122084BEB
:1031B0001A707047C004002008B003400CB00340F0
:1031C000B00D002020B00340C104002024B0034013
:1031D000AE0D002010B50C2804D9102800D91020FD
:1031E000102306E00C230A2803D8023B082800D845
:1031F000023B094AD9B2081A1070084A1078834273
:1032000009D0074B11701B78002B02D00022054B10
:103210001A60FFF797FF10BDAD0D0020C00400201D
:10322000AE0D002024B00340F8B503000020272B8A
:1032300033D81A4AD45CFF2C2FD0194B1B78834209
:1032400001D0FFF71BFF72B610274022154B144226
:1032500005D01A68BA431A603F231C4002E01A687E
:103260003A431A600123104E104D34602B7062B641
:1032700072B680223368134208D00D4B18680023C1
:103280002B7062B60B4B1B78184106E02B78002B95
:10329000DBD062B601F0F2FCEAE7F8BD9B6C0000FF
:1032A000AE0D00200CB0034000B00340AF0D002075
:1032B00010B00340AD0D00200E4B10B51940C023D7
:1032C000DB0419430C4B19600C4B1A6072B60123D6
:1032D0000B4C03432000984762B6702322781340BA
:1032E00000D023708021074AC90013680B43136084
:1032F00010BDC046FCFFFF00040002400800024071
:10330000000002400C3000F0F823802208491B0224
:1033100052021888884203D1064A023B138006E015
:1033200002339342F5D10222024B52421A80704777
:10333000FFFF0000B20D002070B50C4D04002A887C
:10334000002A02D1FFF7E0FF2A88FF207F2C0CD84B
:10335000F82305001B029A4207D319880E002E405D
:10336000B44200D1080A0233F5E770BDB20D002067
:10337000F0B5464EA7B005000F000E22444902A842
:10338000348803F08FFA01967F2D00D97BE0211E4F
:1033900003D1FFF7B9FF019B19883E4A02319142E0
:1033A0000AD8019B3F023D4319808B0701D43A4A5A
:1033B00000E02D042A4363E00023FF2206AE9A5565
:1033C0000133802BFBD1F8238020FF241B02400215
:1033D0001A88110021407F2901D8120A7254023341
:1033E0008342F5D12D4C2E4B7755236072B60127C1
:1033F0002C4D02AB1F432800B84762B670232A78D1
:103400001A402300002A00D02A708021264CC900CF
:1034100022680A432260254A1A6072B62148B847DA
:1034200062B6702380212A78C9001A402300002A3E
:1034300001D01C480270F8251400002718682D02DE
:1034400001431960F35DFF2B0FD00222154202D118
:103450001C023C4308E03A0414431B061C432200B0
:10346000290002A8FFF728FF02350137802FE9D194
:10347000019AAB1E1380AB0705D52900064A2243EB
:1034800002A8FFF719FF27B0F0BDC046B20D00201B
:10349000C46C0000FFFF00000000FFFF04000240BA
:1034A00000F80009000002400C3000F000FC0009A8
:1034B00070B580258026ED02F6000B4C23682B4268
:1034C00001D000F031FA2368334201D002F00CF849
:1034D00023681B0501D500F009F82368DB04ECD54F
:1034E00000F004F8E9E7C0463480044010B5FFF767
:1034F000DFFFFFFF0022014B1A607047008104408C
:103500007047FFFF0A49030010B50868002B0DD073
:103510006A46084CC3181219934206D303F082F985
:103520000C2303600120404200E00B6010BDC04648
:10353000C404002000FEFFFFEFF31380002821D118
:10354000EFF31083002B1FD1EFF3058100290FD07B
:1035500018000F290ED90B00103B0C4A9B089B004A
:103560009B18032218680A40D200D040C0B201E084
:1035700080204000EFF31183002B05D0984203D93F
:10358000180001E0012040427047C04600E400E01E
:103590007047FFFF8022234BD20513B51A608022AB
:1035A000002012061A60204B20491860204B214A47
:1035B000196028231360204A204C1360204A1360AE
:1035C000204A1360204A1360204A136009222260B7
:1035D0001F4C20601F4C21601F4C23601F4C236038
:1035E0001F4C22601F4C20601F4801601F490B6068
:1035F0001F490B601F4B1A60FFF7A4FDFFF7C8FFC0
:103600001D4B1A681C000092009A132AF9D900F089
:1036100081FC2C23FF3322680192019A9A42FAD945
:1036200013BDC04600E100E004800340FFBF00007E
:10363000088003400C800340148003400080034056
:103640001C800340248003402C80034034800340CE
:1036500004900340089003400C90034014900340F2
:103660000090034004A0034008A003400CA00340C6
:1036700014A0034000A00340B40D002010B51A2888
:1036800018D80C2358430C4A835810181C7D027A12
:10369000224205D0002901D01A710BE01A7209E00C
:1036A00043681A68002902D003210A4301E002217D
:1036B0008A431A6010BDC046D46C0000F0B51A28C9
:1036C0002FD80C2217004743164CE5196B682600CB
:1036D000012901D0042911D1504334583018257DD7
:1036E000027A20202A432275A22252001A601A6808
:1036F000042901D1024313E0824311E038592C7AA6
:10370000027DA24302758022002908D0022902D13D
:103710000422FF3204E00022032901D18122520059
:103720001A60F0BDD46C000072B60C4B1A680C4BDA
:1037300018680C4B1B6862B65B0104D532239342B8
:103740009B415B42C018084B9A1A084B5A43FA2314
:103750009B005843920D10187047C04618E000E0D7
:10376000B40D002004ED00E07FBB000055550100C2
:1037700070B50400FFF7D8FF0500002C0FD0FFF74D
:10378000D3FF074B401B984206D9013C002C06D0C2
:10379000FA239B00ED18F2E701F070FAEFE770BD35
:1037A000E70300000223F0B50A4A0B4E1478C8273D
:1037B0002343DB00F518686008480578002D00D128
:1037C000403F09040F43F75001235D405C40057002
:1037D0001470F0BD200E002000F8FF1F980E00208E
:1037E000431E10B50020032B0ED872B6074A99006D
:1037F0008858002807D044685B008C50044904882E
:103800005A5A121B5A5262B610BDC046100E002002
:10381000D80F0020431E0020032B09D872B6054A9A
:103820009B009B58002B02D001305B68FAE762B620
:103830007047C046640E0020F8B572B60123082513
:103840001E001549154C5A1EA25C2A421AD05F016F
:103850007C589A00002C05D1CB1908305860104BC9
:10386000CB5109E03243D2005758002F0AD18B18B0
:10387000083058600B4B8B500B4A1378013B137088
:1038800062B608E00133052BDCD162B60022064B9C
:103890001A7000F0B5FBF8BD00F8FF1FA86E00001D
:1038A00088004000C80040008E0E0020421E10B567
:1038B000032A30D8022380001843174BC0001B187E
:1038C00072B6164CA05C03280BD801F021FF160439
:1038D0000207052012E0083302200FE0083304201D
:1038E0000CE00F48920014580E4B002C01D11150DF
:1038F00001E09858416099500CE00320A0540A0060
:1039000008325A60C822180700D4403A09880904CE
:103910000A431A6062B610BD00F8FF1FCC0D0020EC
:10392000640E0020740E0020F7B5B34B1C781D0008
:103930000423E4B21C421FD0B04B1B78002B18D0DC
:10394000AF4A1378DBB2002B05D0013BDBB213701A
:10395000002B00D100BEAB4A1378DBB2002B06D09F
:10396000013BDBB21370002B01D100F041FF00F0EE
:1039700029FC0422A04B1A700822224000D15CE2EC
:10398000A14BA24F1B78DBB29C08E4001D093C1937
:10399000002D00D0E2E1206865688006000F013844
:1039A0000C2800D9D6E101F0BDFE88018801D501BF
:1039B000D501D501D501D501D501B201D501D5017A
:1039C000D5010D006B68924E9249736000230B6025
:1039D000012191482A682060904C32602170904CFF
:1039E00092B23B610190BB61A24218D8D020C000C6
:1039F000824200D3E7E081204000824200D1C3E050
:103A000006D8802A00D1A8E0822A00D1AAE0EFE0FF
:103A1000844B9A4200D1C6E0FF33FF3317E0824B5C
:103A20009A4200D146E10DD8A13B9A4200D18EE0E6
:103A300080339A4200D0DBE0B278704B04241A70D5
:103A4000802508E0794B9A4200D10DE1784B9A42EB
:103A500000D109E1CCE0E300FA582A4204D0FB1877
:103A60005868083800F0CCFA0134142CF3D1002443
:103A70002500704BE058002805D04368009300F003
:103A8000BFFA0098F7E76B4B18516B4BE0506B4B4C
:103A9000E058002805D04368009300F0B1FA009880
:103AA000F7E7664B664A1851664BE0506B00D05200
:103AB000654BE85C0238032807D801F029FE0204B0
:103AC0000204002200E001225A5501350434042D7D
:103AD000CFD1002301245D4D2B705D4B5D49621EEB
:103AE000E3188A5C9B001A7008231A4221D000F068
:103AF00069FA6301002805D0FA1808305060564A68
:103B0000FA5003E0F8502B7801332B7000F05AFA8A
:103B10000122A3001343002806D0DB00FA18083066
:103B20005060019AFA5004E0DB00F8502B789B18A3
:103B30002B7002210023A2001143C9007B500321F6
:103B40000A438A400134BB50052CC6D18DE02B4B73
:103B5000424C1B7823700B0088E0404C237063704C
:103B6000022383E07F22B0880240042A40D83B4CE5
:103B70009200237063703A4BD218022312781A42D3
:103B800000D173E0217071E07F23B2881A40042ACB
:103B90002ED87388002B2BD1022031499200521865
:103BA000117881430DE07F23B2881A40042A1FD880
:103BB0007388002B1CD102202949920052181178D9
:103BC0000143117051E07288B188264B5C68002C6B
:103BD0000ED01888904209D15888884206D1120A1E
:103BE000032A01D1237841E01B893FE00C33EDE744
:103BF0000F221B4B1A705DE080200740970E0020BB
:103C0000210E00200C0F00209020074000F8FF1F1D
:103C1000840E0020B80D0020C8004000980E00203F
:103C2000810600000203000021090000210A0000B3
:103C300021220000100E0020BC0D0020640E002088
:103C4000D80F0020740E0020CC0D00208E0E002016
:103C500030C80110A86E0000880040008F0E0020C0
:103C6000C0200740AC6E000000231C00F5889D4278
:103C700000D91D002E00402D00D940262000310023
:103C8000FFF790FDA419AD1B03D12F00402E04D0E7
:103C900010E04027AF4200D92F0020003900FFF785
:103CA00081FDE419ED1B01D1402F03D17E4B1C6037
:103CB0007E4B1D8001227E4B4BE07E4E7E4B328838
:103CC0009A4203D100210800FFF76CFD7B4B32685C
:103CD0009A4219D17A4B72689A4215D12B78A92B46
:103CE0000BD16B78452B08D1AB78C22B05D1EB7883
:103CF0006B2B02D10522734B01E00122724B002194
:103D00001A700800FFF74EFD704B236022E0664FEB
:103D10003E68002E13D0654B1C882500402C00D92E
:103D2000402529003000FFF73DFD641B5F4BA4B226
:103D30001C80002C01D1402D00D174193C60A022C0
:103D40005C4BD2001988914204D100225A709A78B3
:103D50005F4B1A700122564B1A706AE008226068A5
:103D6000013D0838EDB2134037D000F049F9594908
:103D7000A8004258584B002A1CD0566846501100E3
:103D8000585D0831616003280BD801F0C1FC0204C2
:103D90000608032104E0022102E0052100E00421DD
:103DA00059550821C8230C4200D1403B1288120407
:103DB00013433DE0585D032808D801F0A9FC3A3AC6
:103DC0000204002200E001225A5532E00822144089
:103DD000621E944102345C552BE02168090C8AB2C2
:103DE000028000291ED03D4943804360AB005F58EC
:103DF0003B4E002F01D1585001E0F158486039493D
:103E00006D00F0506B5AD2186A5200F0DBF80028AF
:103E100002D00830606005E0334A20601378013337
:103E2000137006E008231C4201D1304B00E0274B01
:103E3000236008222E4B1A7077E5012004421ED021
:103E400002231B49294C0B702A4B2B4E1A702B4B0B
:103E50001C605E609C602A4CDC600D241A619A61D3
:103E6000284B1C70FF23284C2370194C2B70227098
:103E7000264A13709F22264B1A70087013E063B213
:103E8000002B04DA0D221F4B1A7080232B700222A4
:103E9000144204D01C490B78DBB20B702A7010233B
:103EA0001C4200D02B70F7BDB80D00208C0E0020F6
:103EB00094200740840E00202120000021090003E7
:103EC00001000400210E0020FD0E0020C80040006B
:103ED00098200740640E0020CC0D0020100E00201A
:103EE000BC0D0020D80F00208E0E0020880040005E
:103EF00080200740200E0020D00D002000F8FF1F7A
:103F0000240E0020C0200740882007408C20074056
:103F10008420074010B501F097FB002210001B4BD6
:103F2000D100C850013259184860142AF8D18020B5
:103F30001749C0020A6802430A601A0A1549D2B238
:103F40000A701A0C1449D2B20A70144A1B0E13706C
:103F5000FF23134A00201370124A13491370134AA7
:103F6000137001220A701249087012490A70124A2D
:103F7000116899430B0070210B43136080220F4B93
:103F800052041A6010220E4B1A7010BD00F8FF1F69
:103F9000348004409C200740B0200740B4200740F4
:103FA00080200740882007409420074010200740C9
:103FB000002107408420074018E400E000E100E011
:103FC0000821074070B572B60B4D2C68200001F037
:103FD00063FD0F2802DD62B600200CE080231B0683
:103FE000C3409C432C6062B648235843034B1818C7
:103FF00000230360436070BDC8040020C0F9FF1FA8
:1040000010B504000E484821201A01F095FB0F2836
:1040100014D80C4B1B78002B07D00B4B1B78002BB4
:1040200003D02000FFF708FC08E072B680231B06CF
:10403000C340064A11680B43136062B610BDC04608
:10404000C0F9FF1F8E0E0020970E0020C80400202C
:104050000B4B70B51B6805000A4C002B07D021885C
:104060003B2904D90022084898470023238023884D
:104070003B2B03D85A1C2280034AD55470BDC0463E
:10408000C00E0020E20F0020E80F0020F8B5012349
:104090001D4D1E4C2B7023680700002B1DD11C4E9C
:1040A0001C4B1B78002B2DD00320FFF7B3FB0528FA
:1040B00004D9013E184B002E06D108E0FFF782FF1D
:1040C00020600028F5D008E01A78002A02D00122EA
:1040D0001A7017E000F0D2FDE2E700260E4B2168CF
:1040E0001E704B885A1C9B00CB189F600F2A01D86A
:1040F0004A8005E0402303200B80FFF7D7FB2660B2
:1041000000232B70F8BDC046B00E0020DC0E00204E
:10411000E1420000970E0020E00E00201201F8B5E9
:1041200004000E00D5B2002901D121483BE00078FF
:10413000012905D11F4B000403430720284326E033
:1041400003046078042700061843F0231B02184379
:104150002F433843FFF79AFF0234023E022E0DD957
:104160002378033E180263781B040343A0783B4383
:1041700000061843FFF78AFF0334EFE7022E08D149
:1041800020780D4A63780002154328431B04184326
:104190000AE0012E06D120780202084805432A438E
:1041A000100001E006482843FFF770FFF8BDC04645
:1041B00006F0F70000F000F7070000F70600F70030
:1041C00005F7000070B50B4C2678002E10D10123A6
:1041D000094D23702968002908D04B88002B05D091
:1041E0009B000B800320FFF761FB2E6000232370F0
:1041F00070BDC046B00E0020DC0E0020F7B5B44EF6
:10420000019033683500002B13D1B24B1B78002B83
:1042100000D1A7E10420FFF7E3FA3060002800D1C5
:10422000A0E10488002C04D1FFF7EAFE34602000EE
:1042300099E1286843889A08920082189468028855
:104240000433934201D2438005E0FFF7D9FE0420F6
:10425000FFF7C6FA28600F23250022099E491A405D
:104260001D40260A37000A702A001F40083A01370D
:10427000062A7FD8019A002A02D0974200D071E125
:10428000220B1340082D07D1082B00D06AE18022B1
:10429000924B1A70924B21E0092D16D1092B00D0B8
:1042A00060E1220E8D4B210C002A07D0902018705F
:1042B0008C4BD2B21B68002B15D152E080201870B5
:1042C000874B1B68002B0ED14BE00A2D0FD10A2B18
:1042D00000D047E1A022814B1A70834B1B68002B52
:1042E0003FD0220E210CC9B2F8B2984739E00B2D0D
:1042F00007D10B2B00D035E1B022784B1A707B4BE5
:10430000ECE70C2D07D10C2B00D02BE1C022734B16
:104310001A70774B08E00D2D0ED10D2B00D021E146
:10432000D0226E4B1A70734B1B68002B19D0210CD6
:10433000C9B2F8B2984714E00E2B00D012E1E02287
:10434000664B1A706C4B1B68002B0AD0FE22610270
:10435000480E9201610C1140684A01438918F8B275
:104360009847674B220C1F70664B240E1A70664BE1
:104370001C70AAE0AB1EF0B2012B05D9052D6DD142
:10438000F02879D9F72877D0F1380E2800D9E9E05C
:1043900001F0BEF9080A17E8E81EE823E82D3741C6
:1043A000E84B5500594B0DE0594B1A68002A52D082
:1043B000FE236002410E9B01600C184008439047A9
:1043C00049E0544B1B68200CC0B2002B42D142E0A4
:1043D000514B1B68002B36D13DE0504B1B68002B26
:1043E00031D14F4BF8201B68002B33D133E04D4BBC
:1043F0001B68002B27D14A4BFA201B68002B29D1C0
:1044000029E0494B1B68002B1DD1454BFB201B6845
:10441000002B1FD11FE0454B1B68002B13D1404BD5
:10442000FC201B68002B15D115E0414B1B68002BAD
:1044300009D13B4BFE201B68002B0BD10BE03D4B01
:104440001B68002B01D0984705E0354B1B68002BFB
:1044500001D0FF209847214B1E7082E7042D08D120
:10446000F0B2FFF7F5FD200CC0B2FFF7F1FD200E12
:1044700076E06B1F022B67D8F0B2FFF7E9FD052D40
:1044800008D0200CC0B2FFF7E3FD072D02D1200EAB
:10449000FFF7DEFD284B1B4A198811701A4A080ADB
:1044A000107000221A800D4BF0321A70234B1B68DB
:1044B000002B03D0EF3A2248984706E0214B012019
:1044C0001B68002B4FD01E48984701204BE0C04688
:1044D000E80E0020970E0020E60F0020E00F0020DD
:1044E000F00E0020F80E0020C40E0020F40E002074
:1044F000B40E0020C80E0020B80E002000E0FFFF20
:10450000E70F0020E40F0020E50F0020D00E002070
:10451000BC0E0020EC0E0020D40E00209C0E0020CB
:10452000A80E0020CC0E0020AC0E0020E40E0020CF
:10453000A40E0020A00E0020E20F0020C00E0020DC
:10454000E80F0020D80E00200F2D0BD1F72800D93E
:104550001AE7F02803D0044B1B88002B02D0F0B2DE
:10456000FFF776FD0020FEBDE20F002070B5144B72
:104570001B78002B20D0134D2B682E00002B03D16D
:104580000220FFF72DF928602868002814D04388FE
:10459000C218147A002C0BD002880133934204D342
:1045A000FFF72EFD0023336000E04380200005E08C
:1045B000FFF726FD2C60DAE70120404270BDC046BF
:1045C000970E0020080F002070B50E4B1B78002BB3
:1045D00013D00D4D2B68002B03D10220FFF700F9FB
:1045E00028602868002808D04388C3181C7A002C4B
:1045F00006D1FFF705FD2C60E7E70120404200E00F
:10460000200070BD970E0020080F002070B5134DDC
:104610002B68002B0AD1124B1B78002B03D00220F1
:10462000FFF7DEF828602C68002C12D0286842883A
:10463000018813009C1A8B4203DAC618367A002EC2
:1046400005D1002C07D1FFF7DBFC2C6001E0013322
:10465000F0E700F013FB200070BDC046080F0020FB
:10466000970E0020324BF7B501220C001F0001907D
:104670001A70002C58D02F4D2B68002B28D12E4EAD
:104680002E4B1B78DBB2002B18D00120FFF7C2F8AD
:10469000052804D9013E2A4A002E09D10BE0012346
:1046A0003B70FFF78FFC234B18600028F2D00FE01F
:1046B0001378002B06D001231370002301203B70D8
:1046C000404233E03B7000F0D9FA01233B70D7E75A
:1046D00000221B4B29681A7040234A88981A23002D
:1046E000844200D90300080008308018D2184A809C
:1046F0000022E41A934204D0019EB65C8654013233
:10470000F8E7019AD31801934A880E4B3F2A02D842
:1047100005221A70ADE7402200260A8001201E7093
:10472000FFF7C4F82E60A4E720003C70FEBDC04631
:10473000FC0E0020000F002029320000970E002000
:10474000040F00200C0F002007B56B46D87107330B
:1047500001211800FFF786FF0EBDFFFF012070B595
:104760000E4D0F4C2B682070002B0FD10D4B1B787A
:10477000002B02D1002020700EE0FFF74BF8052837
:10478000F8D8FFF71FFC28600028F3D02B68588862
:104790004023181A0023237070BDC046000F00206C
:1047A000FC0E0020970E002010B50E4B1B78002B3E
:1047B00016D00D4C2168002912D04B88002B0FD049
:1047C00000220A4802703F2B03DCC8180272013332
:1047D000F9E7402301200B80FFF768F800232360EE
:1047E00010BDC046970E0020000F00200C0F0020C7
:1047F00010B50B4B1B78DBB2002B0FD1094C216895
:104800004A883F2A03DC881803720132F9E7402303
:1048100001200B80FFF74AF80023236010BDC0463B
:10482000FC0E0020000F002030B572B6204C00298D
:1048300010D1016800290DD00379032B0AD82288F2
:104840001A41D20706D51B4A9B181B01994201D178
:1048500062B62BE00023012521880A001A412A4074
:104860001DD101259D402943218062B68025124C2F
:10487000037121686D0029432160104CFE3D2168C1
:10488000294321600B495B1880211B014904036007
:10489000996080218905D9601A605A6006E0013369
:1048A000042BDAD162B600220371026030BDC0462B
:1048B0000E0F002010080004408004403C8004409B
:1048C0000379032B10D88022036852049A6072B6D1
:1048D0000122037905499A400B8893430B8062B605
:1048E00010230371002303607047C0460E0F0020A1
:1048F000EFF3108072B643425841C0B270470028AF
:1049000000D062B67047FFFF10B5FFF7F1FF0C4A09
:104910001468002C10D063691360002B02D00022B1
:104920009A6101E0074A1360FFF7E9FF00232000C6
:104930006377A3689847E8E7FFF7E1FF10BDC0463B
:10494000100F0020140F002010B5FFF7DDFF10BD81
:10495000024A1368013313607047C046B40D00204B
:1049600010B50368C9B21B68984710BD10B503683D
:10497000C9B21B68984710BD10B50368C9B21B685F
:10498000984710BD10B50368C9B21B68984710BDA1
:10499000084B10B504004808C01800F0CDFE00F028
:1049A00005FA054B1B78002B02D1200000F088FE91
:1049B00010BDC046C0C62D00EC04002010B5080094
:1049C00000F04EFC012010BD10B5080000F048FCBE
:1049D000012010BD70B508000D0002F033F804008E
:1049E0000100280000F0BCFC200070BD10B51400D0
:1049F0000800110000F0B4FC200010BD10B5080044
:104A0000110000F011FE10BD10B50800110000F0FB
:104A1000F7FD10BD10B500F051FD10BD10B5080038
:104A200000F01CFC431E9841C0B210BD10B5080038
:104A300000F0EEFB431E9841C0B210BD10B5080057
:104A4000110000F049FB10BD10B5080000F09AFB02
:104A500010BD10B5080000F01BFB10BD10B500F034
:104A600099FA10BD10B51400054B4808C01800F0A5
:104A700063FE00F09BF9200000F022FA10BDC04652
:104A8000C0C62D0010B500F0F1FC10BD10B500F04F
:104A9000A9FC10BD10B500F091FC10BD10B500F0E0
:104AA0006BFC10BD10B500F073FC10BD7047FFFF2C
:104AB000036870B5002B04D000249C600134DC60D6
:104AC00018E080251D4C2D0423682B432360C0462D
:104AD00001241B4B1C601B4B1B4C036003689D682F
:104AE000002D07D010330360A342F7D900230360E1
:104AF000180022E00468154B22600322E3181B1102
:104B0000134D9E00A2607151124A01791248D1548E
:104B100011785378114A994205D8036809041A405C
:104B20000A43026004E001681B040A401343036067
:104B3000802201200A4BD2031A6070BD3C800440E1
:104B400000700340007103401F710340008FFCBFE1
:104B5000E4040020E004002014E400E0FFFF00FF74
:104B600000E100E0026830B5002A1ED00F4B10496A
:104B7000D3181B110F4D9C006550002191600E4A07
:104B8000FF31D154117853780C4C0D4A994205D815
:104B9000236809041A400A43226004E021681B04C8
:104BA0000A40134323600023036030BD008FFCBF25
:104BB000E4040020AD4A0000E004002014E400E01A
:104BC000FFFF00FF094B10B51A68002A04D001222C
:104BD0001A60074B1B689847064B1A68002A04D0D6
:104BE00001221A60024B5B68984710BD0C710340AC
:104BF000E40400201C71034037B5022504002A009C
:104C0000054901A801F04EFE23682A005B6801A94E
:104C1000200098473EBDC046806E000010B5FBF7EF
:104C2000E3FDFCF719FF00F029F8FAE710B501F0F1
:104C300025FE10BD10B501F02BFE10BD704710B55C
:104C4000FFF7C2FC10BD10B5FFF790FC10BD10B50A
:104C5000FFF7DCFC10BD10B5FFF7A6FD10BD10B5C9
:104C6000FFF77CFD10BD10B508001100FFF7FAFC3E
:104C700010BD10B50800FFF767FD10BDF8B52F4C4B
:104C80002278002A58D02E4E3378002B54D101338D
:104C900033701A420DD0FFF7B9FC002801D000F0A4
:104CA0002FFD284B1B78002B03D001222378934340
:104CB000237023789B0712D50025234B1B78AB422A
:104CC0000DD9224BAA00D7583B6838001B6998477A
:104CD000002801D03B6998470135EDB2EDE700238C
:104CE000337023785B0727D519490B68002B23D035
:104CF000EFF30583002B1FD1EFF3108272B6086823
:104D0000002803D0134C2578002D03D0002A13D19E
:104D100062B611E00123237043690B60002B01D0C0
:104D20009D6101E00C490B60002A00D162B60025AC
:104D30008368457798472570F8BDC0460005002078
:104D4000210F0020FA050020CC0F0020C00F00200A
:104D50001C0F0020200F0020180F0020F8B50600BF
:104D60000D00170000243900300000F06BFD0B002F
:104D70003733DBB2092901D83031CBB230002B55A3
:104D8000390000F0D9FC061E01D00134EBE72B19E5
:104D900058702B005A1B944206DD1A78295D197051
:104DA0002A550133013CF5E72800F8BD80212D4A42
:104DB000C90013680B43136000232B4A13702B4A5E
:104DC00013702B4A13702B4A13702B4A13702B4B02
:104DD0001B78032B0FD004D8002B0FD1284A294B66
:104DE0000BE0152B04D0192B08D1274A274B04E0E0
:104DF000234A274B01E0274A274B1A60274B1B7891
:104E0000042B11D005D8012B12D1D122244B9200B2
:104E10000DE0052B04D0182B0AD1224A224B06E0C4
:104E2000D122224B920002E09122214B92001A6083
:104E3000002800D101301F4BC204D20E1A7000228C
:104E4000C0B258709A702C32DA70FF231A4A116877
:104E500099430B0040210B4313608022174B5201F2
:104E60001A60704734800440B10F0020290F0020E1
:104E7000BC0F0020B30F0020280F00206A0F002075
:104E80001303000040A004401304000054D0044069
:104E900018C0044013020000049004400C050020D8
:104EA00044A004404404000050D004401CC004400E
:104EB0000890044000A006400CE400E000E100E09F
:104EC000132130B5294B9A788A43110003220240FE
:104ED0000A43410701D510210A439A700F22234942
:104EE0000240042A03D140248A7922438A71102186
:104EF0005A798A43084200D00A4310215A719A799C
:104F00008A43840600D50A4318499A71C20506D51A
:104F100020254A780C78D2B22C430C704A7080223B
:104F20009200104012491ED09878613AFF3A02432D
:104F30009A70104B1B78042B0FD004D8012B0FD183
:104F40000D4A0E4B0BE0052B04D0182B08D10C4A50
:104F50000C4B04E0084A0C4B01E00C4A0C4B1A6065
:104F600001230B7000E0087030BDC04600A0064071
:104F7000B20F00200C0500204703000044A00440AD
:104F80004704000050D004401CC004404702000009
:104F9000089004402C4B10B51B685B0553D52B4B78
:104FA0001B78DBB2002B02D0FFF768FEF7E7802109
:104FB000274A49011160274AD370274B1B78032BDE
:104FC00012D005D8002B13D10421244BFF310EE061
:104FD000152B05D0192B0BD10421214BFF3106E0F5
:104FE0000421204BFF3102E004211F4BFF311960E7
:104FF0001E4B19787F230B40042B12D005D8012BB0
:1050000013D104211A4BFF310EE0052B05D0182BCC
:105010000BD10421174BFF3106E00421164BFF3161
:1050200002E00421154BFF3119601379D379002375
:10503000134A1370134A1370134B1B68002B02D0D2
:10504000124A12781A7110BD34800440280F0020D3
:1050500080E100E000A006406A0F002040A004406C
:1050600054D0044018C00440049004400C050020B3
:1050700044A0044050D004401CC0044008900440A8
:10508000B10F0020290F0020240F00206B0F0020FB
:1050900070B505000C4B1C78E4B2002CFBD1280045
:1050A0000121FEF70BFB28002100FEF7E7FA0C2395
:1050B0006B431800054A064B815810181960027A94
:1050C000044B1A7070BDC046280F0020D46C00003D
:1050D000B80F0020B00F002010B5002901D08023A8
:1050E0001843224C227890423ED0214B1B685B052E
:1050F00039D57F231340042B0FD004D8012B0FD1B7
:1051000000221C4B0BE0052B04D0182B08D10022E9
:10511000194B04E00022194B01E00022184B1A60E1
:105120006023002900D11C3B7F220240042A15D0B5
:1051300006D8012A17D1C022920013430D4A11E06C
:10514000052A06D0182A0ED18022D20013430A4A1B
:1051500008E0C02292001343084A03E08022920034
:105160001343074A1360207010BDC0460C05002091
:105170003480044044A0044050D004401CC004408B
:1051800008900440194A137883422ED018490968C0
:10519000490529D5032B0FD004D8002B0FD1154971
:1051A0000B600CE0152B04D0192B08D10021124BF9
:1051B00004E00021114B01E00021114B196003288C
:1051C0000FD004D800280FD10E490A4B0BE0152848
:1051D00004D0192808D10C49074B04E00949074BB2
:1051E00001E00A49064B1960107070476A0F0020F1
:1051F0003480044040A0044054D0044018C004400F
:105200000490044013030000130400001302000084
:105210000E4B70B51A680023520515D50C4C1A2890
:1052200011D80C22130043430A490B4D5A58CB188E
:105230001B7A012122602B70FEF740FA23682A783E
:105240001A72012300E02360180070BD348004400E
:10525000240F0020D46C00006B0F0020002070474A
:10526000F0B5344B85B01B6805005B055FD5324B4C
:105270001B68002B02D0314A12781A71304B1B7810
:10528000002B0CD072B620212E4A9379DBB2039307
:10529000039B0B430393039BDBB2937162B62A4AD1
:1052A0002A4E1478336801349C429B4101921C4081
:1052B000274F3B78A34225D1FEF73EF940281CDC5E
:1052C00020490B795BB2002BF2DA3B783068DBB215
:1052D0005A1C824202D23F2A04D800E000221D4B11
:1052E0009B5C04E01C483F3B0068C3181B78DBB2A2
:1052F000DBB2D2B2CB713A70DAE7FF28D8DDFFF724
:10530000BDFCD5E7EDB23F2C02D8124B1D5505E090
:10531000114B1A682300403BD3181D7001220F4B1C
:10532000E4B21A70019BAB321C70064BDA7005B008
:10533000F0BDC04634800440B80F0020B00F0020FC
:10534000B20F002000A00640BC0F0020080500207E
:10535000B30F00202A0F00206C0F0020280F002020
:1053600070B504004518AC4204D02078FFF778FFF0
:105370000134F8E770BDFFFF10B5044B1B78002B1C
:1053800002D0FFF77BFCF8E710BDC046280F0020D5
:10539000074B1978074BC9B21A78D3B2994204D394
:1053A000054A10680138C31800E0013B581A7047DD
:1053B000BC0F0020B30F002008050020064B187812
:1053C000064BC0B21A78D3B2984202D2044A12688D
:1053D0008018C01A7047C046B10F0020290F002066
:1053E0000405002030B5194B1B78D9B2184B1A7838
:1053F0001800D2B2914225D0164C531C2468A34207
:1054000002D23F2B04D800E00023134AD25C04E010
:10541000124D3F3A2D68AA181278DDB20570104877
:10542000D2B205681000002D0ED0994200D20919A1
:10543000CB1A0C49100009688B4205D80A4B1B781F
:105440002B7201E00120404230BDC046B10F002068
:10545000290F002004050020700F0020B40F002049
:10546000240F0020100500206B0F00200E4B1A782F
:105470000E4B1B78DBB29A4212D00D495A1C0968B8
:105480008A4202D23F2A04D800E00022094B985CED
:1054900004E0094A3F3B1268D3181878C0B201E013
:1054A000012040427047C046B10F0020290F002064
:1054B00004050020700F0020B40F0020064B074A9F
:1054C0001B78DBB21370064B1B68002B02D0054A19
:1054D00012781A727047C046290F0020B10F0020C1
:1054E000240F00206B0F002037B5364A13799B0636
:1054F0001AD535483549D4790378096801338B4288
:1055000089410B403249E4B209788B420CD03F2BE1
:1055100002D83049CC5405E02F490D6819004039B4
:1055200069180C70DBB20370D0782649C0B243B260
:10553000002B23DA0B795BB2002B1FDA274B284CA8
:105540001D782378DBB29D4202D16C23CB7015E02D
:10555000244D591C2D68A94202D23F2904D800E0ED
:105560000021214B5B5C04E0204D3F3B2D68EB1894
:105570001B78DBB2DBB2C9B2D37121704023184271
:105580001ED0117919421BD00021194B1970194BEB
:105590001B688B4202D0184909781972174B1B7887
:1055A000002B0BD072B620219379DBB20193019BC3
:1055B0008B430193019BDBB2937162B62C23D370B2
:1055C00037BDC04600A00640B10F002004050020F2
:1055D000290F0020700F0020B40F0020BC0F002006
:1055E000B30F0020080500202A0F00206C0F0020B8
:1055F000280F0020B80F0020B00F0020B20F0020AD
:10560000064B40221860064B002801D00A004032A9
:105610001A60044B1A3119607047C046B40F00205D
:105620000405002010050020054B1860054B0028DC
:1056300002D04031196001E040221A607047C04634
:105640006C0F00200805002030B585B072B67022BE
:105650004121154B1A70154A1170154A32391170D3
:1056600080221A701A7852B2002AFBDA114B18689D
:1056700062B6114B984201D80A23584301AC0A2262
:105680002100FFF76BFB00230C48E15C05000029BB
:1056900005D05A008218013351800A2BF5D101330D
:1056A0005B002B7005B030BD0000024007000240D7
:1056B00006000240080002407F969800E4050020A2
:1056C0000C4A30B51100002413780B4DE2B293421E
:1056D00006D90134A200043AAA588242F6D108E061
:1056E0005A1C0A700221054A9B00E85013780B43AC
:1056F000137030BDCC0F0020C00F0020000500202B
:1057000070470B0010B50100180001F07DF810BDC6
:1057100002B4714649084900095C49008E4402BC44
:105720007047C04603B47146490840004900095A11
:1057300049008E4403BC7047002243088B4274D357
:1057400003098B425FD3030A8B4244D3030B8B4282
:1057500028D3030C8B420DD3FF22090212BA030C8B
:105760008B4202D31212090265D0030B8B4219D36C
:1057700000E0090AC30B8B4201D3CB03C01A52418C
:10578000830B8B4201D38B03C01A5241430B8B42D4
:1057900001D34B03C01A5241030B8B4201D30B03BD
:1057A000C01A5241C30A8B4201D3CB02C01A5241E4
:1057B000830A8B4201D38B02C01A5241430A8B42A7
:1057C00001D34B02C01A5241030A8B4201D30B0290
:1057D000C01A5241CDD2C3098B4201D3CB01C01AAA
:1057E000524183098B4201D38B01C01A52414309B4
:1057F0008B4201D34B01C01A524103098B4201D3A2
:105800000B01C01A5241C3088B4201D3CB00C01A0E
:10581000524183088B4201D38B00C01A5241430886
:105820008B4201D34B00C01A5241411A00D20146AB
:10583000524110467047FFE701B5002000F0F0F834
:1058400002BDC0460029F7D076E7704703460B43F8
:105850007FD4002243088B4274D303098B425FD369
:10586000030A8B4244D3030B8B4228D3030C8B4295
:105870000DD3FF22090212BA030C8B4202D312127B
:10588000090265D0030B8B4219D300E0090AC30B50
:105890008B4201D3CB03C01A5241830B8B4201D3FD
:1058A0008B03C01A5241430B8B4201D34B03C01AE6
:1058B0005241030B8B4201D30B03C01A5241C30A5E
:1058C0008B4201D3CB02C01A5241830A8B4201D3CF
:1058D0008B02C01A5241430A8B4201D34B02C01AB9
:1058E0005241030A8B4201D30B02C01A5241CDD25E
:1058F000C3098B4201D3CB01C01A524183098B42A9
:1059000001D38B01C01A524143098B4201D34B0191
:10591000C01A524103098B4201D30B01C01A5241F4
:10592000C3088B4201D3CB00C01A524183088B427B
:1059300001D38B00C01A524143088B4201D34B0064
:10594000C01A5241411A00D20146524110467047D6
:105950005DE0CA0F00D04942031000D340425340DB
:1059600000229C4603098B422DD3030A8B4212D39B
:10597000FC22890112BA030A8B420CD389019211CD
:105980008B4208D3890192118B4204D389013AD00A
:10599000921100E08909C3098B4201D3CB01C01ADF
:1059A000524183098B4201D38B01C01A52414309F2
:1059B0008B4201D34B01C01A524103098B4201D3E0
:1059C0000B01C01A5241C3088B4201D3CB00C01A4D
:1059D000524183088B4201D38B00C01A5241D9D265
:1059E00043088B4201D34B00C01A5241411A00D2E6
:1059F0000146634652415B10104601D34042002BE2
:105A000000D54942704763465B1000D3404201B560
:105A1000002000F005F802BD0029F8D016E7704715
:105A20007047C0468446081C6146FFE71FB500F07A
:105A300065FB002801D40021C8421FBD10B500F04D
:105A4000F1FA4042013010BD10B500F057FB0028BC
:105A500001DB002010BD012010BDC04610B500F0D4
:105A60004DFB002801DD002010BD012010BDC04607
:105A700010B500F0FFFA002801DC002010BD012065
:105A800010BDC04610B500F0F5FA002801DA00207C
:105A900010BD012010BDC0461C2101231B049842EB
:105AA00001D3000C10391B0A984201D3000A0839AF
:105AB0001B09984201D30009043902A2105C401866
:105AC0007047C0460403020201010101000000000A
:105AD000000000009E2110B5C905041CFFF7D2FF8D
