:1000000000800020BD010000953C00004D3C000038
:100010004D3C00004D3C00004D3C00004D3C0000BC
:100020004D3C00004D3C00004D3C0000953C000064
:10003000953C00004D3C000015570000195700008A
:10004000953C0000953C0000953C0000953C00006C
:10005000953C0000953C0000953C0000953C00005C
:10006000953C0000953C0000953C0000953C00004C
:10007000953C0000953C0000953C0000953C00003C
:10008000953C0000953C0000953C0000953C00002C
:10009000953C0000953C0000953C0000953C00001C
:1000A000DD320000E9320000953C0000953C000084
:1000B000953C0000953C0000953C0000953C0000FC
:1000C000953C0000953C0000953C0000953C0000EC
:1000D000953C0000953C0000953C0000953C0000DC
:1000E000953C0000953C0000953C0000953C0000CC
:1000F000953C000081620000953C0000953C0000AA
:10010000953C0000953C0000953C0000953C0000AB
:10011000953C0000953C0000953C0000953C00009B
:10012000953C0000953C0000953C0000953C00008B
:10013000953C0000953C0000953C0000953C00007B
:10014000953C0000953C0000953C0000953C00006B
:1001500015590000295900003D590000515900006F
:10016000953C0000DD420000953C0000953C0000FD
:10017000953C0000953C0000953C0000953C00003B
:10018000953C0000953C0000953C0000953C00002B
:10019000953C0000953C0000953C0000953C00001B
:1001A000953C0000953C0000953C0000953C00000B
:1001B000953C0000953C0000953C0000564B4CF2ED
:1001C000205210B51A804DF628121A8000BF00BFC9
:1001D00003F064FD514B4FF010621A60504A9A6070
:1001E000504ADA60504A136813F4807304D14F49BF
:1001F0000B604FF4A85313604D4B1A78110703D5C9
:100200001A7842F008021A704A4B4B492A221A7097
:100210004A4A4B4B8B4204D252F8040F43F8040B6A
:10022000F8E7484B484900228B4202D243F8042B9E
:10023000FAE74649464A002352F8230041F82300D2
:1002400001336F2BF8D1434B434A802103F8011B44
:100250009342FBD1414B3D4A1A60414B8A221A70AE
:10026000A3F5805324225A70A0221A709A7992071B
:10027000FCD59A79D406FCD43A4A937903F00C035E
:10028000082B384BF9D103221A7140225A719A79FE
:100290009006FCD5334A9179324B4906FBD5324A58
:1002A000324911600221516020221A709A7902F0BD
:1002B0000C020C2AFAD12E4B2E4A1A602E4B2F4AD2
:1002C0001A6000225A60072243F8042C2C4AC3F813
:1002D0000C2D62B603F052FE144B1B68DA0705D5ED
:1002E000284803F037FE284B284A1A60284B1B7811
:1002F0005B0609D5244C254B22689A4204D121483B
:1003000003F028FE0023236003F0CEFC06F03AFC45
:1003100005F03CFBFEE700BF0E20054030800440A6
:10032000823F04000100002B10D0034014D0034092
:1003300002D0074000E00740049AFF1F2C7B00001A
:100340004088FF1F049AFF1FE8A4FF1F0082FF1FC1
:100350000000000000E400E05FE400E008ED00E0E1
:100360000050064000400640448004400000030165
:1003700004800440C010050014E000E0FF76010096
:1003800000002020B97CF7631CE00340A5C3945A09
:1003900000F00740FFFFFFFFFFFFFFFFFFFFFFFF32
:1003A000FFFFFFFFFFFFFFFFFFFFFFFFFFFFFFFF5D
:1003B000FFFFFFFFFFFFFFFFFFFFFFFFFFFFFFFF4D
:1003C000FFFFFFFFFFFFFFFFFFFFFFFFFFFFFFFF3D
:1003D000FFFFFFFFFFFFFFFFFFFFFFFFFFFFFFFF2D
:1003E000FFFFFFFFFFFFFFFFFFFFFFFFFFFFFFFF1D
:1003F000FFFFFFFFFFFFFFFFFFFFFFFFFFFFFFFF0D
:10040000FFFFFFFFFFFFFFFFFFFFFFFFDEF9FFFF23
:1004100010B5054C237833B9044B13B10448AFF33E
:1004200000800123237010BD049AFF1F000000000C
:10043000287B0000084B10B51BB108490848AFF3F2
:1004400000800848036803B910BD074B002BFBD0A0
:10045000BDE81040184700BF00000000089AFF1FC9
:10046000287B0000049AFF1F00000000014B0122BE
:100470001A707047699BFF1F014B01221A70704769
:10048000489AFF1F704700BF10B584B0044601466C
:1004900002A801F047FE012C01D004B010BD9DF868
:1004A000080001F09BFE044A044B01B200141160E5
:1004B000186004B010BD00BF7C9CFF1F649BFF1F31
:1004C00010B5044605F004FA204610BD2DE9F84F9A
:1004D00002011E4EDFF888A01D4D1E4C002002F1C7
:1004E000640B074602F16508C6F800B0CAF80000C0
:1004F00081461CE04FF0010323704046C6F800809F
:1005000003F062FB144BD855D8B94FF001032B70A0
:1005100001370BF1020B082FC6F800B0CAF80070C3
:1005200005F1010508F1020804F101040CD0584658
:1005300003F04AFB094BD8550028DBD084F8009023
:10054000DBE785F80090E3E7BDE8F88F3489FF1F0B
:100550005C9AFF1FF89AFF1F4089FF1F4C89FF1FFD
:10056000C09FFF1F2DE9F84F0001DFF89CB0234E1C
:10057000234CDFF898A0234DDFF89490DFF89480A7
:10058000002164300B46CBF8000031600F4627E0B5
:100590004FF001020AF80320E9543368DBF8000049
:1005A000E95C03F02BFB3368DBF8000003F1080182
:1005B000013054F82110CBF80000C1B94FF001020E
:1005C00009F8032008F8031003F018FB3368DBF880
:1005D000001001330131072BCBF8001033600BDC26
:1005E00054F823100029D3D00AF80370D5E709F88E
:1005F000037018F80310E7E7BDE8F88FC09FFF1FEE
:10060000B49AFF1F4C89FF1F3489FF1FF89AFF1F00
:100610005C9AFF1F4089FF1F002170B5084603F058
:10062000EDFA0021012003F0E9FA0121022003F094
:10063000E5FA0121032003F0E1FA1421042003F07C
:10064000DDFA0021052003F0D9FA244D24210620EB
:1006500003F0D4FA3F21072003F0D0FA05F13C065D
:100660001024012101E055F8041F2046C9B203F00F
:10067000C5FAAE4204F10104F5D1194D202405F16B
:100680003C06012101E055F8041F2046C9B203F0E1
:10069000B5FAAE4204F10104F5D1124D302405F152
:1006A0003C06202101E055F8041F2046C9B203F0A2
:1006B000A5FAB54204F10104F5D10B4D402405F132
:1006C0003C06202101E055F8041F2046C9B203F082
:1006D00095FAAE4204F10104F5D170BDD476000064
:1006E000D4760000147700001477000008B50020CD
:1006F00003F06AFA012800DC08BDBDE80840FFF7F6
:100700008BBF00BF70B5294C102504F14006284668
:1007100003F05AFA44F8040FB44205F10105F6D18A
:10072000234C202504F14006284603F04DFA44F8F6
:10073000040FB44205F10105F6D11E4D30242046C8
:1007400003F042FA0134402C45F8040FF7D11A4D5A
:10075000204603F039FA0134502C45F8040FF7D144
:10076000002003F031FA154B1860012003F02CFA39
:10077000134B1860022003F027FA124B1860042074
:1007800003F022FA0446052003F01EFA0E4B04EB98
:10079000C01406201C6003F017FA0446072003F07B
:1007A00013FA0A4B04EBC010186070BD149BFF1FB6
:1007B000689BFF1FF49BFF1F389CFF1F4C9AFF1F75
:1007C000809CFF1F6C9AFF1FB09AFF1F509AFF1F5B
:1007D0002DE9F04F42F2107089B0B24DDFF8388346
:1007E000B14FB24EDFF8349303F072FC00232B605C
:1007F000032001E059F82200DFF8A8B2C0B20221BC
:1008000003F03EFC2B685A1C00244FF0010A072A13
:100810002A6008F803A0FC54F454EBDD02210F20F9
:1008200003F02EFC51460C2003F02AFCCBF80040CC
:1008300001210C2003F01EFC642003F049FC002180
:100840000C2003F017FC642003F042FC2B68954C4D
:100850000133022B2B60EBDDFFF748FFFFF752FF60
:10086000032003F0B1F9924B924A1A60A0F1010300
:10087000914FDFF8ACB2B3FA83F35B0900203B6021
:1008800001F048FC102001F039FC042001F03CFC90
:100890000D2003F0A1F800234FF081484FF0000A2B
:1008A0004FF084492360382005F078F800264FF097
:1008B000010E4FF480630446436072463146C0F82F
:1008C0001080C0F820A07D4B80F814E080F82460F0
:1008D00002F07EFD4FF400502B6860607848396864
:1008E00040F823607748C4F810905A1C4BF8234016
:1008F00040F8236011B1744840F823600F2A2A6041
:10090000D1DD002900F09180704D714B697B286921
:1009100004930024012712261323224605970394EB
:10092000009402960193342301F004FF2869DFF854
:10093000F4E1697B674E42F21073C0F878322246C8
:10094000059703940294019400942346CDF810E097
:1009500001F0F0FE604F082421465C4801F0ECFFF6
:1009600000236A7B296959480093012302F046F964
:1009700060B9202C00F08F80602C00F09080312C2A
:1009800004BF01233370012003F0A2FB0134E4B261
:10099000782CE1D11221514804F01EFD504804F09A
:1009A000E1FF504C504D636D1868036847F6122103
:1009B000DB6998474D4B2A681B6807930126079B04
:1009C000C4F8003106FA06F100234FF6FF703143F8
:1009D0009A4284F8586084F8701084F85A3084F889
:1009E00059306366236684F8F83084F8753084F8EB
:1009F000743084F8763084F87730C4F8FC30A06620
:100A0000E06603DB3A4C531EA34227D9394C01213F
:100A1000207803F035FB384B1B681BB1207801218F
:100A200003F028FB09B0BDE8F08F284C284E677B07
:100A30002069039101221323122500910592394662
:100A4000019304963423029501F074FE23692B4927
:100A50002B4AC3F86812C3F86C22A2E702EB4203E8
:100A60001B01013B232B0AD802EB42021201013A7F
:100A7000232ACBD92349244804F0E0FEC6E71A46CE
:100A80002249234804F0DAFE2A68002ABEDB531EFE
:100A9000A342E9D9BAE71F4B01221A7073E7012379
:100AA0003B7070E7409AFF1FF89AFF1F5C9AFF1F88
:100AB00080A2FF1F490C0000389CFF1F17B7D138D8
:100AC000B89BFF1FB49AFF1FC49FFF1F3CA1FF1FCD
:100AD000801A060024A1FF1F689BFF1F54770000A7
:100AE000B090FF1F14A0FF1F4889FF1F58A1FF1FD0
:100AF000575555055489FF1F4C9AFF1F8904000064
:100B0000CD2000006D040000B09BFF1F79040000A1
:100B100008A0FF1FAD9BFF1F589BFF1F74760000AE
:100B2000709AFF1FA0860100F8B5D91D21F00701BA
:100B3000002B00AFADEB010D14DD02440DEB0305FE
:100B40006C46694612F8013B01F8013BA942F9D114
:100B5000BB695E1E361B14F8011B301903F04EF8FA
:100B6000AC42F8D1FFF7CEFDBD46F8BD70B582B0FE
:100B7000102423460094052205460E46FFF7D4FFB5
:100B8000302200922346314628461522FFF7CCFF3B
:100B900002B070BD30B583B020230093052210232E
:100BA00004460D46FFF7C0FF402300932946204628
:100BB00010231522FFF7B8FF03B030BD70B51E4BF0
:100BC0001E491F4A1B680E681068AAB000248DF8E1
:100BD00055307D210F2202230DF1FF358DF856602F
:100BE0008DF857008DF850108DF851408DF8524017
:100BF0008DF853208DF854302E46204602F0E4FF45
:100C00000134502C06F8010FF7D10DF157020DF108
:100C1000A70115F8013FFF2B08BF7F2302F8013F12
:100C20008A42F6D10022582114A804F0B7F8054BE7
:100C300001221A702AB070BD3C89FF1FAC9FFF1FB4
:100C40003089FF1F209AFF1F00B5022983B002D907
:100C500043787D2B02D003B05DF804FB8378002B32
:100C6000F9D1C378002BF6D103790B3B142BF2D8C2
:100C700001A252F823F000BFFD0C0000F30C0000AD
:100C8000E50C0000D70C0000570C0000570C0000CA
:100C9000570C0000570C0000570C0000570C0000C8
:100CA000570C0000570C0000570C0000570C0000B8
:100CB000570C0000570C0000570C0000570C0000A8
:100CC000570C0000570C0000CD0C000003B05DF87D
:100CD00004EBFFF773BF0023009309225023FFF7B3
:100CE00023FFB8E70023009305221023FFF71CFF22
:100CF000B1E703B05DF804EBFFF738BF03B05DF870
:100D000004EBFFF747BF00BF2DE9F041E0290C4697
:100D10009DF8185008D8013DEDB20F2D02D849B208
:100D2000002912DBBDE8F081F729FBD90834E4B2D1
:100D3000012303FA04F414F0DD0FF3D0436D1868B7
:100D40000368BDE8F0411B6818471F46436D8046A5
:100D5000186803682943C9B21B6816469847D8F833
:100D600054301868036806F07F011B6804F0EF0434
:100D70009847C02CD6D0D8F854301868036807F0CC
:100D80007F011B68BDE8F041184700BF036810B53C
:100D900004460BB17430984794F87530803B7F2B34
:100DA00000F28580DFE813F08A008300830083006F
:100DB000830083008300830083008300830083001B
:100DC00083008300830083009600830083008300F8
:100DD00083008300830083008300830083008300FB
:100DE00083008300830083009A00830083008300D4
:100DF00083008300830083008300830083008300DB
:100E000083008300830083009E00830083008300AF
:100E100083008300830083008300830083008300BA
:100E20008300830083008300A2008300830083008B
:100E3000830083008300830083008300830083009A
:100E40008300830083008300AC0083008300830061
:100E5000830083008300830083008300830083007A
:100E60008300830083008300B0008300830083003D
:100E7000830083008300830083008300830083005A
:100E80008300830083008300C4008000D500E50058
:100E900083008300ED008300F100F500F900FD0000
:100EA0000101830005018400A36A002B64D110BDF9
:100EB000236D002BFBD0BDE810401847A368002B22
:100EC000F5D094F8772094F8761094F87400BDE883
:100ED00010401847E368002BF3D1E8E72369002BA3
:100EE000EFD1E4E76369002BEBD1E0E7A369002BC6
:100EF000DDD094F8761094F87400BDE810401847DF
:100F0000E369002BF5D1D2E7226A002ACFD094F80A
:100F1000771094F8763094F87400C90101F47E518A
:100F200003F07F031943A1F50051BDE810401047BD
:100F3000626A002ABBD094F8763094F8771043EABE
:100F40000121802904F1780028BF8021BDE81040EC
:100F50001047E26A002AAAD094F8773094F8760015
:100F6000DB0103F47E5300F07F001843BDE810401E
:100F70001047236B002B9AD094F87600BDE8104000
:100F80001847636B002B96D191E7A36B002B92D18E
:100F90008DE7236C002B8ED189E7E36B002B8AD180
:100FA00085E7636C002B86D181E7A36C002B82D18F
:100FB0007DE7E36C002B7FF47EAF78E7F8B5436DF7
:100FC0000446186803681B69984708B90020F8BDF3
:100FD00094F80D31626D23F0010384F80D3110682F
:100FE00003685B699847C3B2FD2BEFD0626E002A9D
:100FF00049D001067ED494F85B10F0295FD0F72920
:101000005DD0A11881F85B30216E4B1E9A4253D3FC
:1010100094F85B30F02B00F00A82F72B00F0078287
:101020001A0650D4002284F87520B02A5CD0A02A79
:101030005AD0D02A58D0E02A56D0C02A54D0002006
:1010400084F87400032994F85C0008BF94F85D509C
:1010500084F8760018BF002500210120B02A84F80A
:1010600077506166216684F8F80008D000F2D581D7
:10107000902A04D0A02A02D0802A00D0002384F82D
:1010800059300120F8BD94F8592084F85B301506DA
:101090004DD440B20028C0F20E8294F90D0163686D
:1010A00040F0010084F80D0103B19847002084F856
:1010B000590060662066F8BD0132626686E7A118B5
:1010C00081F87830A0E703F10C02D2B2012AA9D945
:1010D000FD2BA7D0EF2B00F2EC8103F0F002802A69
:1010E00084F8752040F0EF8103F00F00013084F8A0
:1010F0007400A7E7A3F1F0010F293FF67CAF0120B0
:1011000000FA01F111F0810540F0B18111F45F4F57
:101110003FF471AF84F8765084F8775084F87450B7
:1011200084F87530C4F8FC0084F8F800F8BD02F1CA
:101130000C01CDB2012DACD9FD2AAAD0EF2A00F2C4
:10114000578102F0F006802E40F0538140B2002813
:10115000A0DB0120C9B2814284F85B2084F85C30B6
:1011600060669AD9FD2A98D0EF2A94BF02F0F00564
:101170001546A5F180037F2B8FD801A151F823F0EC
:10118000E91300009B1000009B1000009B10000062
:101190009B1000009B1000009B1000009B100000A3
:1011A0009B1000009B1000009B1000009B10000093
:1011B0009B1000009B1000009B1000009B10000083
:1011C000E91300009B1000009B1000009B10000022
:1011D0009B1000009B1000009B1000009B10000063
:1011E0009B1000009B1000009B1000009B10000053
:1011F0009B1000009B1000009B1000009B10000043
:10120000E91300009B1000009B1000009B100000E1
:101210009B1000009B1000009B1000009B10000022
:101220009B1000009B1000009B1000009B10000012
:101230009B1000009B1000009B1000009B10000002
:10124000E91300009B1000009B1000009B100000A1
:101250009B1000009B1000009B1000009B100000E2
:101260009B1000009B1000009B1000009B100000D2
:101270009B1000009B1000009B1000009B100000C2
:10128000E11300009B1000009B1000009B10000069
:101290009B1000009B1000009B1000009B100000A2
:1012A0009B1000009B1000009B1000009B10000092
:1012B0009B1000009B1000009B1000009B10000082
:1012C000E11300009B1000009B1000009B10000029
:1012D0009B1000009B1000009B1000009B10000062
:1012E0009B1000009B1000009B1000009B10000052
:1012F0009B1000009B1000009B1000009B10000042
:10130000E91300009B1000009B1000009B100000E0
:101310009B1000009B1000009B1000009B10000021
:101320009B1000009B1000009B1000009B10000011
:101330009B1000009B1000009B1000009B10000001
:101340009F130000E1130000E9130000E113000007
:101350009B1000009B100000811300009F130000F1
:10136000811300008113000081130000811300002D
:10137000811300009B100000811300008113000006
:101380000023012084F8743084F8763084F87730B4
:1013900084F875506366236684F8F800F8BD8021F0
:1013A0000023216684F8785084F859307F21636ED9
:1013B0008B422ED302F00F020023013294F85C100E
:1013C00084F87420012084F8761084F8773084F84B
:1013D000755063662366C4F8FC0084F8F800F8BD15
:1013E000022323660121E2E7032323660221DEE7CD
:1013F000164606F0DF05902D3FF4A8AE06F0BF05B7
:10140000A02D3FF4A3AE06F0EF06C02E3FF49EAE33
:101410003FE6013363660020F8BDD02A3FF42FAECB
:10142000E02A3FF42CAEC02A7FF428AE27E6F02253
:1014300080230025012194F8F76084F8752084F852
:10144000763084F8F720C4F8FC30204684F87750D2
:1014500084F8745084F8F810FFF798FCF722022300
:1014600084F8796084F8782028466366F8BD94F89B
:101470007810F02902D0F7297FF40FAE551C2244D2
:1014800000214FEA152E82F878300126F02784F8E3
:10149000765084F877E084F8741084F85910304658
:1014A000C4F8FC5084F875706166216684F8F860B1
:1014B000F8BD1A46B7E503F10C02D2B2012A7FF655
:1014C000ECAD1A4650E6902A3FF40EAEADE500BFF3
:1014D00090F87030DA0718D513F0FE0F15D070B5FC
:1014E00090F8755085F08002602A82B004460DD8CD
:1014F00090F874608E4231D081B35B08012B32D0FA
:10150000032B00F09F8002B070BD7047A5F1F0037F
:101510000F2BF8D801A252F823F000BF13160000D9
:10152000F1150000BF150000A3150000071500000D
:10153000071500007B150000071500007B15000053
:10154000071500007B1500007B1500007B150000CF
:10155000071500007B1500007B1500005B08012BC0
:1015600001D0022BCFD194F8773094F876200096F2
:1015700029462046FFF7C8FBC5E705F10803DBB2A3
:10158000072BC0D8012202FA03F313F0DD0FBAD003
:10159000636D1868036829461B6802B0BDE8704097
:1015A0001847436D90F8765018680368F3211B685C
:1015B0009847636D186805F07F010368ECE7436D99
:1015C00090F87750186894F876200368F2211B6829
:1015D00042EAC5159847636D1868036805F07F01F6
:1015E0001B689847636D1868C5F3C6110368D3E795
:1015F000436D90F87650186894F8773002682D01A2
:1016000003F00F03126805F07005F1211D439047A8
:10161000BEE790F8763090F8776043EA0626802E91
:1016200028BF802600F17805002E3FF46CAF2E44D1
:10163000636D15F8011B186803681B689847B5426D
:10164000F6D160E794F8773094F876200096294632
:10165000FFF75AFB57E700BF2DE9F041384C394FEF
:10166000DFF8FC8082B002F069FA94F87030364AF4
:1016700036496265012043F001030025802660F3AE
:10168000470384F8703011604FF6FF7329463246E5
:1016900004F17800A366E36625606560A560E560F7
:1016A00025616561A561E56125626562A562E56206
:1016B00025636563A563E56325646564A564E564E6
:1016C000256584F8585084F8595084F85A50256696
:1016D000656684F8745084F8755084F8765084F800
:1016E000775084F8F85005F03DFD3A4620461849F9
:1016F000C4F80051C4F80451C4F8085184F80C51DE
:1017000084F80D5104F012FF0523009307220623ED
:101710000821104800F07CFD0F4B3A464146184620
:101720001D601E7104F002FF0C4B3A4641461846FC
:101730001D601E7102B0BDE8F04104F0F7BE00BFAD
:1017400014A0FF1F1C89FF1F10A0FF1F8890FF1F00
:1017500085040000289AFF1F08A0FF1FB09BFF1FF1
:10176000C10400002DE9F0415C000F2A88BF01345C
:10177000DFF860E0069D5EF82460AE4223D0DFF81B
:1017800058804EF824501E46104B114C1D800144C9
:101790002B124046C9B21746A370E57001F0CCF891
:1017A0002146404604222770667000F0CBFD0023DE
:1017B00098F80D20D8F81010069340460123BDE894
:1017C000F04101F01BBABDE8F08100BFBC9FFF1FD4
:1017D000B09FFF1F8C9CFF1F3CA1FF1F2DE9F04114
:1017E000584C94F85850102D82B034D9002003F092
:1017F00055FB554B1B78002B2AD05448544E057886
:10180000544B5548DFF874E1544C36781B78544AF1
:101810000660DEF8000053492560534C12782260C0
:10182000013B85420B6051492AD05148514C2260FE
:10183000092BCEF800500B6006604C4CDFF830816D
:101840004C4F05DC902D45D0B02D1FD0802D34D0CD
:1018500002B0BDE8F0812046FFF7B0FB0028C5D0FC
:1018600094F87530902B1ED083F08003602B1DD927
:101870003448FFF78BFA29463248FFF729FEB5E7CF
:10188000086883423A4852D03A4CD0E7A6F1210189
:101890000129DDD8212E02EB821214BF322128212A
:1018A00052000B4439E094F877307BB194F87430EF
:1018B0009D42DDD0002DDBD0DDE700221433DBB20A
:1018C000009211463120FFF74DFFC1E7802384F8D5
:1018D0007530EBE7002201211433DBB20091312097
:1018E0001146FFF73FFF2368D8F80000143315387E
:1018F000DDB204F0DBFE204904F02CFF05F0F0F827
:101900002B460090102200213120FFF72BFF3A6870
:10191000236802EB821252001E330092DBB21022C7
:1019200000213120FFF71EFF02B0BDE8F0810468FE
:10193000A642104C7FF47BAF2768BA427FF477AFA2
:1019400086E700BF14A0FF1F24A1FF1FB8A3FF1F3D
:10195000BCA3FF1FBFA3FF1F849CFF1F689AFF1F2C
:10196000BDA3FF1F149BFF1F889CFF1F249AFF1F0E
:10197000B89FFF1F3C9AFF1FA68A0843589AFF1F73
:101980002DE9F04FA74CA84FA84EA94DDFF8ECB2B7
:10199000002187B02160C7E0A648084410F8080C71
:1019A000002834D1A44850F821007F2840F0ED8071
:1019B000A24B13F82130A2F50052013B02F30D02B5
:1019C0001B0202F5005203F47063100443F46043F9
:1019D00043F00E0300F4FE005204184302F0FE42EE
:1019E000104303F08DF92168954B53F821207F2A8D
:1019F00000F0E8809348944B10F821101B7893482E
:101A00000091D2B2B021FFF77FF98F4B1B6821689C
:101A100045F82130072953DDA1F1080EDFF8609267
:101A20008B4B19F80E2013F80E309A4248D0884B91
:101A3000C7F800E013F80E30002B40F03181854BE1
:101A4000DFF840A213F80E30002B40F0E5801AF8C2
:101A50000E20784B13F80E30002B40F0D5807E4BD3
:101A6000039313F80E30DFF82082784818F80E1030
:101A700000919021FFF748F93A68039B1AF8021089
:101A80009B5C18F8020009041A0601F4FE0102F03A
:101A9000FE430B43013843F41043000243F00903B3
:101AA00000F47060184303F02BF96C4B1B78002B8B
:101AB00040F054813B68664A2168D25C09F80320F3
:101AC000DBF800305BB3DFF8C481326858F82130AE
:101AD000934224D0624B0B40002BC0F2A38161489B
:101AE000DFF8AC91DFF8ACA100780029B8BF033172
:101AF000DBB2C1F3870189F800308AF800100028B2
:101B000040F02581554B1B78002B40F01781564B38
:101B10001B78002B40F00481216848F82120013116
:101B20000F29216000F32581504B55F8210053F80F
:101B30002120039044483260D3110360039883420C
:101B400050D04B48006890B1DFF84CE1DEF800005F
:101B500068B9DFF848C14748DCF800C0CDF814C0C8
:101B6000DDF814C0C0F800C00120CEF8000007293D
:101B70003FF712AF3748405C00287FF448AF2E484B
:101B800050F821007F283FF413AFDFF8B0E00204E3
:101B90001EF8211002F4FE02180642F43042013908
:101BA00042F00B0200F0FE400902104301F47061A4
:101BB000084303F0A5F82168214B53F821207F2A20
:101BC0007FF418AF1F4B326813F821300093E021E7
:101BD000C2F3C6131D4802F07F02FFF795F81A4BB7
:101BE0001B6814E7144850F821007F2800F091800A
:101BF000134850F821007F2800F08B801E480078A1
:101C000000289ED1216805E7134B0393184615F869
:101C1000213000F80E3026E715F82E200AF80E20A5
:101C200017E700BF549AFF1F449AFF1F009BFF1F36
:101C3000B49AFF1F5C9AFF1FF89BFF1F189BFF1FA2
:101C40003C9CFF1F6C9BFF1F0C9BFF1F14A0FF1FE2
:101C5000049BFF1FF89AFF1F4089FF1F24A1FF1F4D
:101C600003000080689BFF1FAD9BFF1FB89BFF1FF9
:101C7000809CFF1F04A0FF1F209AFF1F389CFF1F9E
:101C8000589BFF1F4C89FF1F2889FF1FC49FFF1F00
:101C9000649AFF1F499AFF1F609BFF1F58A1FF1FF7
:101CA000DFF8EC81DFF8ECA16D4B18F80E1013F89B
:101CB0000E301AF80E206B4800918021FFF724F8AF
:101CC000694B1A68664B1AF802109B5C18F8020000
:101CD00009041A0601F4FE0102F0FE430B43013829
:101CE00043F40043000243F0080300F4706018431B
:101CF00003F006F85D4B1B78002B3FF4DBAE236846
:101D00000022083BDBB2009211463120FFF72AFD8A
:101D1000D0E6574850F8210082427FF412AF6DE7B9
:101D20009AF8001099F8003000924900062201F05C
:101D3000FE012020FFF716FD3268EDE623780092C1
:101D4000002111223120FFF70DFD3268DFE60092FD
:101D500060201122FFF706FD3268D3E623680121D7
:101D60000022083B0091DBB211463120FFF7FAFC5C
:101D7000A0E6404B4049414C1B68DFF81C81002223
:101D80000A70217803F00103994288F800304ED0A0
:101D9000002B52D13A4F23703A4D01233B703A4CFD
:101DA0003A4E002020604FF0010904E02068013025
:101DB0000728206013DC335C03F0FF0A002BF5D109
:101DC000FEF7D0FB0C20012187F800A085F80090D9
:101DD00002F050F92068013007282060EBDD2B78F5
:101DE000EBB198F80030D3B1274C284E002020608A
:101DF00004E0206801300728206010DC335C03F029
:101E0000FF07002BF5D1FEF761FB0C2039462F7040
:101E100002F030F92068013007282060EEDD07B0BD
:101E2000BDE8F08F013B63F00303013357E6144F25
:101E3000144D3B78002BB2D1D1E7124D104F2B78C7
:101E40003A7083F0010319460C202B7002F012F94E
:101E50003B7898F800202270002BC0D09FE700BF8D
:101E60004089FF1F14A0FF1F449AFF1F24A1FF1FDA
:101E7000C49FFF1F90F00F40209AFF1F3889FF1F5B
:101E8000AC9BFF1FF49AFF1FC09FFF1F049BFF1F07
:101E90002889FF1F4C89FF1F109BFF1F2DE9F04F62
:101EA000744B1B6883B0B3B1734A744B12680192D0
:101EB0001B68019A32339342714B80F0A4801968F9
:101EC000704B002940F0CA80187802F0D3F86E4BAE
:101ED00000221A6008E06A4B19686A4B002940F03A
:101EE0008D80187802F0C6F8DFF8D0B1674D684CE5
:101EF000DFF8CCA1DFF8CC81664F674EDFF8C891E0
:101F00000021CBF80010654800F0A2F9002001F094
:101F100097FDDBF800302860014654F8230001F0FB
:101F200069FBDBF80020DAF8001054F82230DB6A95
:101F300011B1C3F5FF531F33D8F800003968984238
:101F40007DDC8B42A8BF0B46091A7BD01B1AC3EB62
:101F5000833301EBD17003EB600303FB01F0002836
:101F600093FBF1F371DB072A2B6046F8223052DC39
:101F7000072A50D8DFE802F03B342D261F18110441
:101F8000474B1B6803F0010389F807300132CBF897
:101F90000020444B53F82210B5E7434B1B68C3F3B2
:101FA000403389F80630F1E7404B1B68C3F38003E8
:101FB00089F80530EAE73A4B1B68C3F3801389F8C8
:101FC0000430E3E7364B1B68C3F3401389F8033052
:101FD000DCE7364B1B68C3F3400389F80230D5E7D2
:101FE000334B1B68C3F3004389F80130CEE72E4B17
:101FF0001B68C3F3003389F80030C7E70121187864
:1020000002F038F870E71B686BB31E4B002118789C
:1020100002F030F868E701320F2ACBF80020B8DD73
:10202000244C23789BB9244C23782BB1FFF7A8FCD0
:1020300072B60023237062B603B0BDE8F08F091AB0
:10204000034683D141F6FF738DE7013B8BE7FFF732
:10205000C5FB72B60023237062B6E4E7012118784D
:1020600002F008F833E7074B0121187802F002F874
:102070003AE700BF809CFF1F58A1FF1F04A0FF1F6D
:102080004C9AFF1F5489FF1F609BFF1FB49FFF1FC7
:10209000709AFF1F509AFF1FB89BFF1F289AFF1FBF
:1020A000D0F00F409476000010F00F4090F00F40F9
:1020B00050F00F40699BFF1F489AFF1F409AFF1F77
:1020C0006C9AFF1FB09AFF1F049BFF1F084A094B21
:1020D0001268094810B553F82240A4B2210A00F052
:1020E00001F9E1B20448BDE8104000F0FBB800BFC0
:1020F0007C9CFF1FB89BFF1F3CA1FF1F014B18607A
:10210000704700BF5C89FF1F014B1860704700BF1C
:102110006089FF1F024B80F001001870704700BFFC
:102120005889FF1F2DE9F04385B00024DFF8A49003
:10213000DFF8A480264F019406460094029403948D
:102140006D4699F80020D8F810103869A2B1D1F87E
:102150003831D1F834E1CEEB0303012BD4BF002397
:102160000123ABB1042CF1D001346AB3084600F06E
:102170005BFD45F8040BE4E7D0F83831D0F834E1E2
:10218000CEEB0303012BD4BF00230123002BE9D1A5
:10219000AAB900F049FD034604AA02EB84043046C4
:1021A00044F8103C0299039B009C019A347003EBA5
:1021B00001231BB27360727005B0BDE8F08308465E
:1021C00000F032FD0346E7E700F02EFDD1E700BF47
:1021D00028A1FF1F5889FF1F3CA1FF1F0A4A0B4B74
:1021E000116890FBF1F210B41C6801FB1202034667
:1021F00092B22341002062F30F009BB263F31F40B1
:1022000083B003B010BC70475C89FF1F6089FF1F5B
:102210002DE9F041044617468846C8B201211E4602
:10222000069D01F02DFFF8B2012101F029FFF0B267
:10223000012101F025FFE8B2012101F021FFC4F8DE
:1022400000806760A660E5602046BDE8F08100BFC1
:1022500038B50B4B09015D180446595C007801F054
:1022600009FF2979207901F005FF297A207A01F008
:1022700001FF297B207BBDE8384001F0FBBE00BF99
:102280006489FF1F002070470369D3F83801D3F831
:102290003431C01A704700BF0369D3F83411D3F842
:1022A0003821914208D2D3F83421511C1A44C3F882
:1022B000341192F8300070474FF0FF30704700BF84
:1022C0000369D3F83411D3F8382191423DBFD3F8D4
:1022D00034219B1893F830004FF0FF30704700BF57
:1022E000704700BF0369D3F84422B2F5817F03D958
:1022F0000123037100207047D3F8442210B49C18C6
:102300000132C3F8442284F83C11012010BC70470C
:1023100038B503690A4A026093F84822022A044643
:1023200001D0204638BDD3F87452002DF9D028468C
:1023300003F0B4F92846082103F032FB204638BDEB
:102340007C77000038B503690546D3F84402B0F540
:10235000817F1AD81446D3F84422D3F84402C2F538
:102360008172013203F59E73A242184402D2012306
:1023700014462B71224601F04DF92A69D2F84432F5
:102380002344C2F84432204638BD01232B7100207B
:1023900038BD00BF2DE9F0471E46044617469DF89C
:1023A00020909DF824309DF828A00D4659B30129AE
:1023B0000FD090F84A329A424FF0000800D14DB346
:1023C000012D0ED094F84B329E4212D00020BDE871
:1023D000F0871D2F4FD01A2F77D094F84A324FF044
:1023E00000081E2E1AD01F2E6DD094F84B329E423C
:1023F000ECD1BAF1000FE9D00025B8F1000FE5D01B
:10240000002DE3D031E0102A35D0132A33D090F8D4
:102410004A328846A6F11103012BE6D8022594F82A
:102420004B329E4257D0BAF1000F09D094F84C328B
:1024300094F84B02002B14BF0221002101F020FE72
:102440002B02B9F1000F13D143F06403264A02EBCB
:10245000C60201215268136084F84B6284F84C92E2
:1024600084F89912B8F1000FB0D00120BDE8F087D0
:1024700043F00303EAE74FF0020894F84A22974238
:1024800026D04BB194F84C3294F84A02002B14BF7A
:102490000221002101F0F4FD4FEA0822B9F1000FFA
:1024A0000ED142F06402104B03EBC70359680123BD
:1024B0000A6084F84A7284F84C9284F898327EE775
:1024C00042F00302EFE70625A9E74FF00608D4E73C
:1024D000002BE1D073E7BAF1000FB1D0B8F1000FD3
:1024E0003FF474AF8CE700BFE8780000F8B5C3682C
:1024F0001B789B0610D483680D4680211970C36831
:102500001221197090F84932012B044606D08AB97D
:1025100080F848220120F8BD0020F8BD1A4675B9A0
:10252000474B4FF080711960022A0FD0012084F8C8
:102530004802F8BD531E012BF1D90120F8BD012D31
:10254000F2D13F4B4FF000711960EDE7D4F874629F
:10255000002E6AD03379102B30D0002D3CD1326858
:102560003849938B384F9BB243F0080393833279F9
:10257000531102F110009B0041F8207003F16043F9
:1025800003F56143012102F01F0201FA02F23168F2
:102590001A608B8B9BB243F002038B83337903F178
:1025A000804303F5043396221D701A700022022323
:1025B00084F85E2284F848320120F8BD304603F0EA
:1025C0006DF83046082103F0EBF900230120C4F830
:1025D000743284F84802F8BD012DE7D132681949F8
:1025E000938B1A4F9BB243F00803938332795311B4
:1025F00002F110009B0041F8207003F1604303F5E5
:10260000614302F01F02954032681D60938B9BB2BC
:1026100043F002039383337903F1804303F50433DA
:102620000021972219701A70C0E7082003F0B6F94C
:10263000314607463E4602F0CDFFC4F8747289E782
:1026400000E100E00082FF1FDD320000E9320000FF
:10265000F0B5284EDFF8ACE0A6FB0143A6FB024232
:102660009E0937027546960914240023B7FBF6F637
:1026700004E00133372B1BD055F8044F2202964259
:10268000F7DA83BB14241C4A4568B1FBF4F4914289
:102690002B70C0F8504207D8184B8269A3FB013158
:1026A000C1F307511170F0BD836904221A70F0BDA7
:1026B000002422464FF470274FF470654FF0360C1B
:1026C000B21AF71B002A87EAE776A6EBE776B8BFCF
:1026D0005242964202DD0A4AD35CD4E7084B2C46AC
:1026E00013F80C30CFE703F1FF3C5EF82C502F02BB
:1026F000E6E700BFD34D6210FF6BDC02819F5E16E0
:102700007478000098770000F0B49DF814409DF8AC
:1027100010609DF818503CB135B1C7683F78BF06CE
:1027200002D50020F0BC7047069505940496F0BCD5
:10273000FFF730BE2DE9F04184B0044694469DF881
:1027400028609DF82C209DF830009DF834E09DF81D
:102750003C700D4600294BD1DFF8E080D8F800101E
:1027600041F04001C8F80010002184F849C284F803
:102770005512BCF1000F2AD163692021197012B9DA
:1027800094F84A22D2B210B994F84B02C0B294F82D
:10279000981294F8996202960346CDF800E00191F0
:1027A00020462946FFF7B0FF0E9A23492046FFF73F
:1027B0004FFF3A4629462046FFF798FE94F84932E3
:1027C00063B3A368C0221A7004B0BDE8F0816169E8
:1027D000CEB14FF0280C81F800C09E42216823D969
:1027E0005B00DBB20B707600E369F6B21E70C6E7E1
:1027F0000129B9D1DFF84480D8F8001041F08001F8
:10280000C8F80010B0E74FF0200C81F800C0216834
:102810005B00DBB20B70E3691E70B0E7A368802237
:102820001A7004B0BDE8F0817600F6B20E705E005A
:10283000E369F6B21E70A2E7006CDC02348004404B
:102840002DE9F041154682B004460F46984601F046
:102850001DFC0DB9D4F8785201F018FCA3681A7861
:102860009206064609D5B4221A70304B1B78002B0D
:1028700035D0012002B0BDE8F08155BBE3681B787C
:1028800003F0200303F0FF02002BF6D1A36884F8C5
:102890004922B0221A70A3681B7803F0200303F0CA
:1028A000FF00002BE1D1062384F85532D4F8903292
:1028B000013304D0D4F890320133C4F89032D4F804
:1028C0007032002BD6D001909847019802B0BDE835
:1028D000F08101F0DBFB801B8542CFD8DBE794F869
:1028E0004832013B012BC4D801F0F6F98FB1012F1A
:1028F0000FD10F4B1B788342BBDB0F2812DD5FB17A
:10290000012F09D1A0F11003094ADBB23846137038
:10291000B0E7084B1B78EEE7A0F11003054ADBB2E5
:102920001370A6E7012088F80000A3E750A1FF1F5D
:1029300019E400E018E400E00369490083F83C1161
:10294000036900220121C3F84412027183F8552261
:10295000704700BF2DE9F043054683B0D0F844022C
:1029600000248DF8074070B190461C460BB9D5F88D
:102970007842EB6812221A7028460DF107032246AE
:10298000FFF75EFF10B903B0BDE8F08395F8483259
:10299000BBB19DF80720A2B9591E0129F3D808211F
:1029A000022B85F8551285F85482C5F8402200F0B4
:1029B000A180AB68F0221A702B6995F83C211A703F
:1029C000E1E701F063FB082385F85532D5F844723E
:1029D00085F8548206465FB305F23B1800274FF096
:1029E0000209002C44D12B6918F8012F1A70EA68EB
:1029F0001378980737D4002CFAD001F047FB801BDE
:102A00008442F4D8EB6883F8009001F03FFB801B10
:102A100084420BD9EA681378DBB2D9063AD4DB07D3
:102A20004AD4D5F844320137BB42DAD895F85482FB
:102A3000AB68B8F1010F0CBF8022B0221A70D5F834
:102A40004432BB421AD9012385F85532D5F8803279
:102A5000013304D0D5F880320133C5F88032D5F87F
:102A600070329BB98FE782F80090002CD2D0CCE76F
:102A700001F00CFB801B8442B5D8D7E7D5F8603253
:102A8000002285F85522002B3FF47DAF984703B014
:102A9000BDE8F0831023042185F855121370AB684C
:102AA00080221A70D5F88C320133D8D0D5F88C3208
:102AB0000133C5F88C32D2E77FB9022385F855324D
:102AC000D5F88432013304D0D5F884320133C5F807
:102AD0008432AB6880221A70C1E7032385F855322F
:102AE000D5F888320133F4D0D5F888320133C5F8EF
:102AF0008832EEE7D5F84432042B7FF65AAFD5F88A
:102B0000741201200C6885F85E02D5F84432E27137
:102B10000E68A08005F59F772760B0600C68033BC6
:102B200098B2E08309685B42E360C882D5F874120A
:102B300028690B68B0F1804F9A7118619A820B680E
:102B400001D39A6812B901229A600B6800229A6137
:102B50002FE700BF036993F85532013B052B0CD8D2
:102B6000DFE803F003070903050304207047012091
:102B7000704702207047032070470079003018BF6B
:102B80000120704770B51546044601F07FFA0DB973
:102B9000D4F8785201F07AFA064694F85532072BA9
:102BA0001AD9002DF9D001F071FA801B8542F4D8B2
:102BB00001F06CFA801B854210D894F84832022B41
:102BC0000CD194F85E324BB194F85532072BFBD8F8
:102BD000012384F8553201E0002DE9D194F85532F3
:102BE000072B02D9012384F855328023013BFDD104
:102BF00094F85502B0FA80F0400970BDF8B5069E11
:102C00000C46154607461A46294620463346FFF726
:102C1000A1FE324629462046FFF7B4FF3846BDE8FC
:102C2000F840FFF797BF00BFD0F83421D0F8383113
:102C30009A4208D2D0F834315A1C0344C0F83421E7
:102C400093F8300070474FF0FF3070472DE9F041A6
:102C5000C04E337804460133DBB2C068A7683370D6
:102C600005783B78DBB203F0200282B0EDB23AB3D4
:102C700013F0100F94F85E327AD0022B00F0D88057
:102C800094F85E32032B00F0D38094F85532082B71
:102C900000F0298294F85532092B00F0648294F8F0
:102CA0005532012B00F0D38180233B70E368022270
:102CB0001A703378013BDBB2337002B0BDE8F081AB
:102CC00002F0FF08EA0624D405F0400202F0FF0EED
:102CD0001ABB03F0100303F0FF02002B00F0838007
:102CE00015F0010540F0A881D4F84022D4F8443210
:102CF0009A4207D2D4F840325A1C2344C4F84022E6
:102D000093F83C5123691D70A368D0221A70E068C3
:102D10006EE0102303706806C8D594F855320C2B6A
:102D200000F0098105F0040505F0FF07002D64D0CF
:102D3000A3680021D0220B2084F85502C4F8441265
:102D40001A702269D4F86C1213785B0884F8563232
:102D500009B188472269D4F84432002B00F074810D
:102D600094F83C8182F800800123C4F840329DE74A
:102D7000022B00F0A68094F85E32032B00F0A180B5
:102D8000D4F83831D4F858220233934200F04F81FE
:102D900094F85532012B00F04581D4F838310133D5
:102DA000934280F0198194F85532012B00F00F8185
:102DB000D4F838312269591CC4F8381123441278E8
:102DC00083F83020E36802221A7094F85532DBB29F
:102DD000012B7FF46EAF94F85D22002A7FF469AF77
:102DE00084F85D3265E794F855320C2B00F09C8135
:102DF0000223037002B0BDE8F081574B574A94F8A4
:102E00004B0284F85C72002914BF11461946032254
:102E100000F0E0FFA3680C21C02284F85512C4F82A
:102E200038711A7023691B785B0884F856323DE7C5
:102E3000D4F8742213689B8B190604D594F85E327B
:102E4000022B00F0B88094F85E32032B00F08E80E5
:102E5000434B12791968012393400B423FF429AF89
:102E60004049414B0A70D4F8741209791970002254
:102E7000072384F85E2284F85532D4F89432013363
:102E800004D0D4F894320133C4F89432EA0611D550
:102E9000042384F85532D4F88C32013304D0D4F8AA
:102EA0008C320133C4F88C32E26810210023117097
:102EB000C4F84032A36880221A70E36802221A70B4
:102EC00032E0D4F874321A68928B120603D594F863
:102ED0005E22022A63D094F85E22032A00F0DA8090
:102EE0001F491A790968012393400B423FF4E1AE70
:102EF0001C491D4B0A70D4F8742212791A70A36809
:102F000080220020072184F85E0284F855121A708E
:102F1000E36802221A70D4F89432013304D0D4F852
:102F200094320133C4F89432D4F87032002B3FF459
:102F3000C0AE9847BDE6D4F86832002B3FF4F2AE3D
:102F40000022C4F83421D4F838010191984701993E
:102F5000E8E600BF50A1FF1F4D33000059330000C9
:102F60002C8000401E8000401F800040037819061E
:102F7000FCD5C14B12791A70002384F85E32D4F864
:102F800044322169013BC4F84032D4F84032234432
:102F9000022293F83C310B70E3681A7089E6B74956
:102FA0001B790B70A368E8211970E368032184F88A
:102FB0005E121A707DE6B14912790A70A268F0219A
:102FC0001170E268032184F85E12137071E694F8C0
:102FD0005D32002B3FF4ECAEA3680021B02284F8F0
:102FE0005D121A70D4F838312269591CC4F83811AE
:102FF0002344127883F8302094F85432012B00F0E7
:10300000C480E36802221A7094F85532012B33D041
:10301000D4F86432002284F85522002B3FF4D5AE58
:103020009847D2E694F85D32002B7FF4B6AEE823E1
:103030003B70D4F85822B0E6C0233B702369E068A7
:103040001B7884F855E2D3E684F83C318AE694F89C
:103050005432012B0CBF8023B0233B70E368022263
:103060001A70D4F8803201333FF45EAFD4F8803266
:103070000133C4F8803257E7D4F88032013304D0EA
:10308000D4F880320133C4F88032D4F87032002B87
:10309000C6D19AE6784A1B791370A3680021B02242
:1030A00084F85E121A70D4F858322269013BC4F8D1
:1030B0003831D4F83831591CC4F838112344127807
:1030C00083F8302094F85432012B00F0C180E3687B
:1030D00002221A70D4F86432002284F85522002BA0
:1030E0007FF427AFE5E505F0100303F0FF02002BA6
:1030F00052D000230421102284F85E3284F8551245
:103100000270A26880211170E268C4F84032022384
:103110001370D4F88C3201333FF406AFD4F88C32FC
:103120000133C4F88C32FFE6554B564D84F85C22CF
:10313000002914BF29461946032294F84B0200F0D7
:1031400049FE23691B78D4F83821B2F5817FDBB2C0
:1031500007D8D4F83821A1180132C4F8382181F8F1
:103160003030E06844E6EB062ED50422102384F8C4
:1031700055220370A36880221A70E36802221A7035
:10318000D4F88C320133C9D1CEE62023013BFDD1E6
:10319000A36880221A7034E715F0010528D084F85E
:1031A0005E22D4F84032002B59D1022384F85532E4
:1031B000D4F88432013304D0D4F884320133C4F813
:1031C000843280233B7078E6E9072CD502238022E5
:1031D00084F855323A70E2681370D4F884320133BF
:1031E0003FF4A2AED4F884320133C4F884329BE6B3
:1031F000D4F840320133C4F84032D4F84422934228
:1032000042D394F8543284F85552012B0CBF8023DA
:10321000B0233B70E36802221A70D4F86032002BAE
:103220007FF487AE45E594F85E32012B34D0D4F8B4
:103230005832012B4FF00A020CBFE823E02384F838
:1032400055223B702269E368127802221A7030E539
:103250002023013BFDD1A36880221A7037E70323A6
:1032600084F85532D4F888320133AAD0D4F88832A1
:103270000133C4F88832A4E71C8000401F8000405E
:103280004D3300005933000094F85E32012B12D008
:10329000D4F8403221697AE60223E12284F85E32D2
:1032A0003A70D4F874120C4A097911702169E268F5
:1032B00009781370FDE40223F12284F85E323A703B
:1032C000D4F87412044A09791170226994F83D11F6
:1032D0001170E2681370ECE41B800040002101488B
:1032E000FFF7B4BC648AFF1F01210148FFF7AEBCA1
:1032F000008DFF1FC3681B7803F020035BB190F8BB
:103300005C320133DBB2012B80F85C3217D990F8C4
:103310004B0200F0DBBD70B503F0FF05044680F8FA
:10332000555290F84B0200F0D1FDD4F868325BB1F1
:10333000C4F83451D4F83801BDE87040184790F80B
:103340004932012BE3D1704770BD00BF0021014815
:10335000FFF7D0BF648AFF1F01210148FFF7CABFF2
:10336000008DFF1F2DE9F843134BDFF85C90DFF869
:103370005C80124E124D1E6000244FF47A774A464C
:1033800041461C711C739F6018465C731D6103F0FD
:10339000CDF80C4B4FF0010E05F527751C711C7311
:1033A00083F80DE04A46414618461D619F601E6045
:1033B000BDE8F84303F0BAB83CA1FF1F7C770000DA
:1033C000648AFF1F28A1FF1F1C89FF1F1123000013
:1033D0002DE9F041CFB205460E4638460021904611
:1033E0001C4600F04DFE3846002100F043FE85F8F3
:1033F0000C802E6020464FF07E5103F067FB20B119
:103400004FF07E54AC60BDE8F0810021204603F00F
:103410003FFB0028F6D00024AC60BDE8F08100BF7F
:10342000037B2DE9F04704460D46002B41D0037D78
:103430000846002B40F0988003F038F9D4F810804B
:103440000646A7693046394603F07AF8002105465A
:1034500003F03CFB002800F0C880284603F066FB20
:10346000266A81463146284603F06AF8604903F02F
:1034700071F9314603F066F800212062064603F038
:1034800025FB002800F0AE80414630464FF0010A8F
:1034900003F0FEFA08B94FF0000A84F824A0414670
:1034A000304603F0F5FA10B3384603F019FBBDE8D7
:1034B000F087A769084603F0F9F8394603F040F8A9
:1034C0000021054603F002FB002871D105F1004000
:1034D00003F02CFB266A81463146284603F030F87B
:1034E000434903F037F9314603F02CF8206248468F
:1034F00003F0D8F8A16803F02DF94FF07E5103F0E6
:1035000021F801464FF07E5003F0D8F901464FF004
:103510007E5003F015F8014603F014F84FF07E5189
:10352000064603F0D3FA00284AD04FF07E502946D1
:1035300003F010F9394603F005F800263146A06182
:10354000054603F0A5FA00283CD16068013803F075
:10355000ADF806460146284603F0B8FA50BB2846A7
:1035600003F0BEFABDE8F08703F0A0F8D4F81080AD
:103570004146064603F08CFA40BB6768384603F0C4
:1035800095F8414602F0DCFF0146304603F09EFA12
:1035900000283FF456AFC7EB450003F087F84146DB
:1035A00002F0D0FF03F09CFA03F080F8064648E7EB
:1035B00028468DE7A661304603F092FABDE8F08711
:1035C0003046B4E7A6610020BDE8F087680003F04C
:1035D0006DF8414602F0B4FF03F082FA03F066F89A
:1035E00006462EE706F100464EE705F1004035E7B6
:1035F000CDCCCC3EC36A10B5044603638162FFF7AD
:103600000FFF236BE0621B1A18BF012384F83430CC
:1036100010BD00BF01B441EA000313F003036FD1F2
:10362000403A41D351F8043B40F8043B51F8043B85
:1036300040F8043B51F8043B40F8043B51F8043B8C
:1036400040F8043B51F8043B40F8043B51F8043B7C
:1036500040F8043B51F8043B40F8043B51F8043B6C
:1036600040F8043B51F8043B40F8043B51F8043B5C
:1036700040F8043B51F8043B40F8043B51F8043B4C
:1036800040F8043B51F8043B40F8043B51F8043B3C
:1036900040F8043B51F8043B40F8043B51F8043B2C
:1036A00040F8043B403ABDD2303211D351F8043BCC
:1036B00040F8043B51F8043B40F8043B51F8043B0C
:1036C00040F8043B51F8043B40F8043B103AEDD27B
:1036D0000C3205D351F8043B40F8043B043AF9D2CC
:1036E00004320AD0D2071CBF11F8013B00F8013B9D
:1036F00003D30B7803704B78437001BC704700BF55
:103700000C2A4AD310F0030311D0C3F10403D21AD8
:10371000DB071CBF11F8013B00F8013B07D311F890
:10372000013B00F8013B11F8013B00F8013B11F0AF
:1037300003033FF475AF30B4043AC91AC3F1040C63
:1037400051F8044B022B19D0032B0BD0240A51F84B
:10375000043B1D0644EA050440F8044B1C46043AA9
:10376000F4D216E0240E51F8043B1D0244EA05048D
:1037700040F8044B1C46043AF4D20AE0240C51F8F9
:10378000043B1D0444EA050440F8044B1C46043A7B
:10379000F4D20432B1EB0C0130BC043AA0D3013AAC
:1037A00011F8013B00F8013BF9D20B7803704B781C
:1037B00043708B78837001BC704700BFF8B5374CFD
:1037C000374D01E002F002F923681B06FAD42B689A
:1037D00013F08003F6D172B632480278002A5BD02B
:1037E0003149324A324D0F681268324C2E68CD682A
:1037F00024683A441431324409682F4F2F4E2A442A
:1038000022440A44C2F34E022D4C2E4D2E4942F45E
:1038100000423A60376822682E680D680C343A44DA
:10382000083124680968294F32442A4422440A4452
:10383000C2F34E02264E274C274D284942F400423F
:103840003A60376822682E680D680C343A440831B3
:1038500024680968224F32442A4422440A44C2F3AD
:103860004E02204E204C214D214942F400423A6044
:10387000376822682E680D680C3408313A44246891
:10388000096832442A4422440A44C2F34E021949C8
:1038900042F400420A60037062B6F8BD24B00340EF
:1038A00024B00B4052A1FF1F38B003403CB003408E
:1038B00040B0034048B003402CB0034058B0034030
:1038C0005CB0034060B0034064B0034030B00340DC
:1038D00038B00B403CB00B4040B00B4044B00B4004
:1038E0002CB00B4058B00B405CB00B4060B00B40AC
:1038F00064B00B4030B00B4030B42948294A2A4B01
:103900002A4D6024E121047011701B78284C082B8B
:1039100030D00A2B2748284937D00C2B0CBF352232
:103920003D2212232A60236002600B60234B24494E
:103930001B78244ABBB101230B601360224B23493F
:103940001B78234A012B26D9042B0FD9082B1ED90B
:10395000102B94BF862387230B6013601D4B01221D
:103960001A7030BC70470B601360E7E784230B606C
:103970001360F3E700F58E200F490830012213236E
:103980002A60236002600B60D0E73922F7E78523C5
:103990000B601360E2E780230B601360DEE700BF7B
:1039A00000400740014007409C8FFF1F08B00340C4
:1039B0000CB0034008B00B400CB00B4055A1FF1FEA
:1039C00020B0034020B00B409D8FFF1F24B0034068
:1039D00024B00B4052A1FF1F0C2830B417D910237C
:1039E000984228BF18461C46104A114D1178181AE3
:1039F0008C42287018D00F4913700B7823B10E49F0
:103A00000E4A00230B60136030BCFFF775BF0A2815
:103A100002D90C231C46E7E7082802D90A231C46D2
:103A2000E2E708231C46DFE730BC70479C8FFF1F8E
:103A300051A1FF1F52A1FF1F24B0034024B00B402F
:103A400028282FD8334B2DE9F0411E5CFF2E2BD0B8
:103A5000314B1B78002B2AD132062CD472B62F4D55
:103A60002F4C2F46012326602B7062B672B6236856
:103A70001B060CD43B781BB9F4E72B78002BF1D054
:103A800062B601F0A3FF72B623681806F5D5254B80
:103A90001B6800222A7062B6234A107843FA00F0AD
:103AA000BDE8F081002070470020BDE8F081FFF7FD
:103AB00085FE3206D2D572B61C4DDFF87C801C4CD8
:103AC00006F04007FFB206F03F06D8F80030DFB13D
:103AD00023F01003C8F8003001232660134A2B702E
:103AE00062B672B6236819060CD413781BB9ECE7DA
:103AF0002B78002BE9D062B601F068FF72B623681C
:103B00001B06F5D50B4BC3E743F01003C8F8003094
:103B1000E2E700BFAC78000052A1FF1F54A1FF1FD5
:103B200000B0034010B0034051A1FF1F53A1FF1F7D
:103B300000B00B4010B00B400CB00B40F0B585B09E
:103B4000102219496846FFF765FD184A1278910757
:103B50001DD51749174D0A7812F0700218BF0A7068
:103B60001549164A0346802715480F70002633244E
:103B700003212E700470117072B60D4C43F00103D6
:103B80002046984762B6237813F0700309D10D4B95
:103B9000064901E0013B02D00A78D207FAD505B008
:103BA000F0BD237005B0F0BDD878000001000240E0
:103BB0000000024004000240070002400A000240E8
:103BC0000B000240410D0300B0F5006F0AD210B5A2
:103BD000094B1B78DB07044606D504F1A05000789A
:103BE000C0B210BD00207047FFF7A8FF04F1A0503D
:103BF0000078C0B210BD00BF01000240B0F5006FF8
:103C000017D238B50F4B1B78DA070D46044611D58D
:103C100004F1A0500378AB420AD00B4A137813F09A
:103C2000700318BF1370074A05701378DB07FCD5C3
:103C300038BD7047FFF782FF04F1A0500378AB4214
:103C4000EBD1F5E7010002400000024008B5104C3E
:103C500008E0236859050DD423681A050FD423689A
:103C6000DB0411D423685803F3D500F037FB236835
:103C70005905F1D502F004FB23681A05EFD500F0D1
:103C800009F82368DB04EDD500F004F8EAE700BF8B
:103C90003480044008B5FFF7D9FF00BF014B102264
:103CA0001A80704700200540704700BF094908B5D9
:103CB0000B6830B16A461844A2F58052904202D295
:103CC0000860184608BD02F057FF0C2303604FF050
:103CD000FF3008BDA08FFF1FEFF3138070B9EFF323
:103CE00010836BB9EFF305825AB94FF48070EFF38C
:103CF00011832BB1984228BF184670474FF0FF3010
:103D000070470F2A01D81846F1E7014BD05CEEE767
:103D1000F0E300E0704700BF10B40F4B53F83020C1
:103D200092F880422CB1012369B182F8803010BC36
:103D3000704703EBC0035B681A6841B922F00202C6
:103D40001A6010BC704782F8003110BC704742F016
:103D500003021A6010BC7047E87800001C4A02EBAE
:103D6000C00301295B6811D004291BD052F8300030
:103D7000002280F8802229B1022920D0032922D0F4
:103D80001A6070474FF480721A60704752F8300022
:103D90004FF4A27280F880121A601A6822F0200292
:103DA0001A60704752F830104FF4A272012081F867
:103DB00080021A601A6842F020021A60704740F2CE
:103DC00003121A6070474FF481721A60704700BF87
:103DD000E8780000212848D8F8B5042A44D8DFE85C
:103DE00002F0484B4E0345004FF410262B4B03EBDB
:103DF000C0030D465C68216811F4E06148D0284B8F
:103E0000284A2949C3F89C2104F140422748C3F8B5
:103E1000A411A2F59221264FC3F8A0017C292548C0
:103E2000C3F8A871C3F8AC012CD9A2F594237C2B5C
:103E30002AD9A2F596237C2B28D9A2F598237C2B8E
:103E400029D9A2F59A227C2A27D81B4872B6236862
:103E500023F4702343F08072C4F38401164323607B
:103E600040F82150266062B6F8BD70474FF4302606
:103E7000BCE74FF40026B9E74FF44026B6E74FF40D
:103E80002026B3E70D48E1E70D48DFE70D48DDE701
:103E9000FFF764FFB3E70C48D8E7F8BDE878000007
:103EA0000082FF1FF188FF1F9988FF1FC588FF1F31
:103EB0006D88FF1F4188FF1F7C90FF1FA48FFF1F8D
:103EC000DC8FFF1F2C90FF1F5C90FF1F1A4B03EB32
:103ED000C00010B4426802F14043A3F592217C294E
:103EE00023D9A3F594217C290DD9A3F596217C290A
:103EF0001FD9A3F598217C2919D9A3F59A237C2BE6
:103F000011D80E4C00E00E4C72B613680D4823F029
:103F10008773C2F3840123F4803343F0807313600A
:103F200044F8210062B610BC7047074CECE7074C20
:103F3000EAE7074CE8E700BFE87800007C90FF1F45
:103F4000DC8FFF1F153D0000A48FFF1F5C90FF1F3B
:103F50002C90FF1F30B4054B054D064C002210215C
:103F60001A602A602060196030BC704714D003408A
:103F700004D0034000D00340704700BF324B3349A8
:103F8000DFF8E8C0324A4FF40000F0B518604FF097
:103F9000807018604FF0007018604FF080601860FB
:103FA0004FF0006018602B4E2B4D2C4CDFF8C0E01A
:103FB0002B4F0020086028234BF6FF71CCF800102F
:103FC000CEF80030336013602B6023603B60B36237
:103FD0009362092245F8242CC4F8D80F05F57F65B3
:103FE000C7F8D41F07F5FF2707F5FA67C6F8F83FAB
:103FF0002B6006F5FF26C4F8D42F05F5FD2504F542
:10400000FF24386004F5FD641648C6F8F41706F27C
:10401000F47605F5FF6583B02B6023600260FFF73F
:104020006BFCFFF7A9FF104C23680093009B132B38
:10403000FAD900F0A1FD23680193019BB3F5967FA7
:10404000F9D303B0F0BD00BF08E100E004800340F5
:104050001C80034014800340248003402C800340D4
:104060003480034000800B4058A1FF1F08800340AC
:104070000C800340212801D8FFF74EBE704700BFD7
:10408000212801D8FFF76ABE704700BF72B60C49FD
:104090000C4B0D4A1B680868126862B6520102D5C3
:1040A000322B88BF01300949C3F5BB334FF47A7214
:1040B000FF33A1FB031302FB00F000EB93107047EA
:1040C00058A1FF1F18E000E004ED00E0ABAAAAAA87
:1040D0002DE9F843054672B6204F214B214A1B6853
:1040E0003C68126862B6520102D5322B88BF013497
:1040F00095B3C3F5BB331C4EDFF86490DFF86480E2
:10410000FF334FF47A72A6FB031302FB04F404EBB3
:10411000931472B6D9F800103A68D8F800E062B685
:10412000C1F5BB33FF33A6FB03031EF0806FC4EB66
:1041300093134FF47A7002D0322988BF013200FB0A
:104140000233B3F57A7F04D3013D05D004F57A74C8
:10415000DFE701F03BFCDCE7BDE8F88358A1FF1F77
:1041600018E000E004ED00E0ABAAAAAA431E032B6E
:1041700014D872B60A4951F8230068B170B4094CDA
:10418000058834F81320466841F82360521B24F850
:10419000132062B670BC704762B67047002070474B
:1041A000B4A1FF1FB0A3FF1F013803280BD872B6BC
:1041B000074B53F8203043B100205B680130002BDF
:1041C000FBD162B67047002070471846F9E700BF80
:1041D00008A2FF1FF0B472B61A491B4E012311F852
:1041E000014B194F9A00240742F0010505D556F8F6
:1041F000324064B156F83520BAB10133052BEED107
:1042000062B6124B00221A70F0BC00F02FBD0F4CAA
:104210000F4D217807EB43130830013958602170A6
:1042200047F8325062B6F0BC7047084A0949137823
:1042300007EBC5040830013B6060137047F8351088
:1042400062B6F0E7887A00000080FF1F31A2FF1FEE
:1042500088004000C8004000431E032B1DD81B4AA5
:10426000400140F0100030B4104472B6184CE25CCB
:10427000032A1BD8DFE802F00212151703220D886B
:10428000E25410F0080F14BFC823882343EA054303
:1042900008314160036062B630BC704708300222CA
:1042A000EDE70522EBE708300422E8E7094A52F877
:1042B000230038B1084A52F82300416042F8231025
:1042C00062B6E9E742F82310034AF7E70080FF1FD0
:1042D00040A2FF1F08A2FF1F18A2FF1F2DE9F04FE9
:1042E000DFF824B3DFF824A387B044E0B04F4FEAEF
:1042F000930807EBC809013ED9F8042003F008032E
:10430000F6B2A2F1080003F0FF04002B40F00D818B
:1043100057F838301B0C99B222F8081C002B00F01B
:10432000FB80A44B22F8064C42F8044C53F826209C
:10433000002A00F07781A04D55F8263058609F4C38
:1043400045F8260034F81630194424F8161000F009
:104350006DFC002800F05F81994A9A4B19F0080F14
:1043600000F1080018BF1346C9F8040047F83830B8
:1043700008238BF800309BF80040E4B261071DD59C
:10438000914B1B78BBB191490A7802F0FF032AB127
:10439000013BDBB20B70002B00F0D3838C490A7811
:1043A00002F0FF032AB1013BDBB20B70002B00F0DF
:1043B0002F8100F059FD04238BF8003004F008032E
:1043C00003F0FF02002B00F0DC809AF80030DBB233
:1043D0001E098BD19A08DFF8D88158F8321008EB03
:1043E000C200C1F38301013940680C297FD8DFE89E
:1043F00001F082827E7E7E7E7E7E457E7E7E07000E
:10440000D0F800E0734C41686D4B48F83230724F81
:10441000724E616040F281621FFA8EF10025012028
:104420009142C8F81050C4F800E03D60C8F8185038
:10443000307000F20B81B1F5D06F80F04283B1F59E
:10444000817F00F02B8300F26681802900F0CB820F
:10445000822940F0E781A188614B01F07F010429A6
:1044600000F2E1815F4A89000B441570557019789C
:104470008D0740F14083107002205DE2564F3A688C
:104480005AB3594B5949554E18880C7896F800E0A4
:104490004028054684F0010C28BF402544F0020462
:1044A000BEF1000F81F800C0A0EB050008EBC40CC2
:1044B0000CBF8821C82180B28EF0010E41EA05416F
:1044C000CCF80420188086F800E02A4448F834101C
:1044D00010B9402D18BF00223A603E4B1A88B2F541
:1044E000A06F04D100219A785970414B1A70414A4B
:1044F000012313703CE7374C258842F221018D429D
:1045000000F0978124683C49324D8C4200F05C8178
:104510002B4948F83210EAE7294A2A4B19F0080FCC
:1045200018BF134647F8383022E700F09FFB334AA4
:10453000334952F82630002B78D058688C5D42F809
:10454000260003F10802C9F80420032C05D8DFE88F
:1045500004F0120F150204228A551A8819F0080F68
:104560000CBF8823C82343EA024347F83830FFE6EC
:1045700002228A55F1E703228A55EEE705228A5581
:10458000EBE7E00700F16D81210600F19781A207BA
:1045900006D51C4A1C4913780220DBB21370087040
:1045A000E30602D5184B10221A7007B0BDE8F08F51
:1045B0000080FF1FB4A1FF1F60A1FF1FB0A3FF1F5A
:1045C000C8004000880040003CA2FF1FC5A1FF1F9B
:1045D000B4A2FF1F28A2FF1F5CA1FF1FC4A1FF1FE1
:1045E000C020074034A2FF1F70A1FF1F30A2FF1F91
:1045F00098200740942007402109000308A2FF1FCC
:1046000040A2FF1F882007408020074090200740DD
:1046100000F0C0FFCDE6AE4A47F83800137801330A
:104620001370A5E643F82600AA4D88E68B5D032BA0
:1046300000F2D28101A252F823F000BF71430000C2
:1046400071430000B7480000B148000040F6211255
:10465000914200F0B58000F2DB80B1F5086F00F008
:104660006781B1F5106F40F0DD809B4AA1789B4DCA
:104670001170042402E00134142C0CD058F83430AA
:104680001A06F8D505EBC40301345868083800F061
:10469000EDFA142CF2D19248924A93490190934832
:1046A000934C8C4D029400230497059681461C463A
:1046B0000F4616460395306828B1456800F0D6FAD3
:1046C0002846002DF9D100233360039B38681A4631
:1046D000002342F8243028B1456800F0C7FA284684
:1046E000002DF9D100223A60019A99F80030114664
:1046F000002241F8042B029A0191023B4FF0000185
:1047000022F81410032B00F27781DFE813F0A701E1
:104710007101A701710140F20232914240F02881FB
:10472000A28802F07F02042A7CD86588002D79D106
:1047300070490190920011440A7842F002020A7016
:10474000002081460290864602466B490C7844F070
:10475000020C08EBCC030393019B002B039B5A60D4
:104760000CBF8822C822029B3570134384F00102DB
:1047700048F83C300A70DFF864C15F4B002840F015
:104780000F81BEF1400F1BD142F0020208EBC203C1
:10479000DFF848E1C3F80490002D40F017810504CC
:1047A00045F088059DF80430337040280C7009EB03
:1047B00000034EF8325003D10020504A3B60108075
:1047C0004F4A0123137092E66C684E498C427FF485
:1047D0009FAE0178A92900F0D3804B4901200870D1
:1047E00045494A4E0C78307844F0020584F00104C3
:1047F0000C7008EBC50100284FF000044C6080F0FD
:1048000001000CBF8821C82148F8351030707FE6C0
:1048100040F62122914200F0AF8042F221229142E3
:1048200000F0AA80334B0F221A70354A012313700F
:104830005DE63149354E0F78357847F0020E87F046
:1048400001070F7008EBCE01002D4FF000074F60FD
:1048500085F001050CBF8821C82148F83E1035704D
:1048600050E627491D4B2A48234EDFF888C0294DC2
:10487000DFF8B8E0284F02240C70284C18605C6008
:1048800098602748D8601A619A610D233270254CD0
:104890008CF80030244EFF232B7001209F258EF8CA
:1048A00000303A7033702570087007B0BDE8F08FA3
:1048B00001238B555CE500238B5559E50D491B4BB6
:1048C00080220D2008701A70A2077FF569AE60E69D
:1048D00031A2FF1F60A1FF1F3CA2FF1F0080FF1F2E
:1048E00018A2FF1FB4A1FF1F08A2FF1F40A2FF1FB5
:1048F000B0A3FF1FC020074030A2FF1F70A1FF1F01
:104900009420074001000400A5A2FF1FC4A1FF1FBF
:1049100088004000882007409820074074A1FF1FAE
:10492000C8A1FF1F842007408C200740802007403B
:104930008449854A09781170E588854280F0F180C4
:1049400082490C7844F0020C08EBCC00402DAE46B6
:1049500028BF4FF0400E426002EB0E094FEA0E43B3
:104960000122CEEB0500019202930025C822FAE64F
:10497000B1F5A06F7FF456AF012300250193DFE668
:10498000417845297FF429AF8178C2297FF425AF8A
:10499000C1786B297FF421AF6D49052008701FE7AE
:1049A00040287FF6F1AE42F002020CEBC201C1F8E2
:1049B00004907DB16749684D9DF804601C702E70AD
:1049C000403809F140034CF83210F6E6050445F092
:1049D000C805E7E66149EEE719F0080F0CBF0223AE
:1049E00003238B55C4E4584A022015705570A3E781
:1049F0004FF0010389F800300134042C06F104065D
:104A000007F1040709F101097FF455AE544D554AE9
:104A1000554B059E049F019600202E4618704FF0BE
:104A20000109154616F8013B05F8043B1B071AD48B
:104A30004FEA890444F0020144F00304002348F8DB
:104A4000313048F83430494B9D4209F10109E9D130
:104A5000019E3378019383F0010571E64FF0000366
:104A600089F80030C8E700F0E1F800284FD008EBE3
:104A700049134FEA890408305860384B48F83430FD
:104A800000F0D4F8002838D044F0010308EBC3014B
:104A90000830304A486048F83320CBE7A28802F05B
:104AA0007F02042A3FF6BEAE6588002D7FF4BAAEC1
:104AB0002F490190920011440A7822F002020A70F4
:104AC0003EE62C494A68002A3FF4ACAE6588B4F84B
:104AD00004E004E00C314A68002A3FF4A3AE0B88DE
:104AE000AB42F7D14B887345F4D12D0A032D0CBF8F
:104AF0001078088920E702201EE71B4B1A4A1B7812
:104B000044F00101013348F83100137092E7164B6D
:104B1000154A1B784FEA8904013348F834001370B2
:104B2000AEE74028864628BF4FF0400E4FEA0E43BE
:104B300002930123CEEB000002EB0E090025019346
:104B400003E600BE3CA2FF1F34A2FF1F30A2FF1FDE
:104B5000C5A1FF1FC8004000C4A1FF1F880040007E
:104B6000887A0000C420074031A2FF1FD4200740EC
:104B7000C02007408C7A00002DE9F04101F06AFC6A
:104B800000231F491A4601EBC30041F833200133CB
:104B9000142B42604FF000041948F4D1194A1A4FFF
:104BA00013681A491A4D1B4EDFF874C0DFF874E021
:104BB000DFF8748043F480231360C0F307233B7055
:104BC000C0F307430B70000EFF2302F52832287054
:104BD000D4328CF80030104D8EF800300F4833700E
:104BE000012388F80030702681F850404FF400749B
:104BF000102107F8183C2E7004601170BDE8F08198
:104C00000080FF1F348004409C200740B0200740F4
:104C1000B42007401020074049E400E008E100E02C
:104C200080200740882007409420074072B60D4836
:104C30000268B2FA82F30F2B10DC4FF00041D9402A
:104C400022EA0102026062B6074803EBC303DB00FD
:104C5000C2180021C15010465160704762B6002052
:104C6000704700BF8490FF1FBC83FF1F0D4B0E4A8F
:104C7000C31AA2FB03231B090F2B0CD80B4A127873
:104C800052B972B60A484FF00041026821FA03F3A4
:104C90001A43026062B67047064A1278002AF0D0C2
:104CA000FFF798BABC83FF1F398EE33831A2FF1F8C
:104CB0008490FF1F3CA2FF1F38B50E4B0E4C1B68A3
:104CC000218805468BB1B1F5917F05D20B4A4B1C6B
:104CD00055549BB2238038BD0022084898470021D4
:104CE000064A55540123238038BDB1F5917FEDD399
:104CF00038BD00BF68A2FF1FBAA3FF1FC0A3FF1FDC
:104D00002DE9F843214E224F3168012380463B7044
:104D1000B1B1204D4B8801EB8302013300240F2BEE
:104D2000C2F808802C7004D84B8000233B70BDE88B
:104D3000F88340230B800320FFF78EFA3460F4E7FA
:104D4000DFF8549099F80030002BF0D0114D45F663
:104D5000215408E0013C12D02B7883B900F036FED4
:104D600099F800307BB10320FFF71EFA0528F1D82F
:104D7000FFF75CFF014630600028EBD0CAE7012353
:104D80002B70BDE8F883BDE8F88300BF84A2FF1F45
:104D900058A2FF1F88A2FF1F3CA2FF1F1201F8B5F7
:104DA000D5B2A1B3012943D04378044600781B064D
:104DB00043EA004040F4704045F004068F1E304343
:104DC000FFF79EFF022F04F1020314D9053414F8F3
:104DD000023C14F8032C14F8010C1B0443EA0223D0
:104DE000334343EA0060033FFFF78AFF022F234665
:104DF00004F10304EBD8022F23D0012F0DD045F48A
:104E0000774040F00500BDE8F840FFF779BF14484F
:104E10002843BDE8F840FFF773BF187845F47705DD
:104E200045F0060545EA0020BDE8F840FFF768BFF9
:104E300003780C4845EA03452843BDE8F840FFF7EE
:104E40005FBF1A78587845F0774545F0070545EA81
:104E5000022545EA0040BDE8F840FFF751BF00BF1A
:104E600006F0F70007F000F770B50A4C257845B951
:104E7000094E31680123237009B14B8813B900230F
:104E8000237070BD9B000B800320FFF7E5F93560B0
:104E9000F5E700BF58A2FF1F84A2FF1F2DE9F041D4
:104EA000AD4E33680746002B00F092801D885A886B
:104EB000910803EB81010432AA428C6842D25A80E5
:104EC00004F00F064FEA1428A449A6F1080208F0DE
:104ED0000F00C4F30313062A00F101050B701AD961
:104EE000B31E012B5FFA88F04ED9052E48D0042E50
:104EF00000F0A481731F022B7FD90F2E0ED1F7284B
:104F000042D8F02802D0964B1B883BB1FFF7D4FE65
:104F10000020BDE8F08127B1BD4202D00020BDE8ED
:104F2000F081082EC4F3033300F08780092E11D0DE
:104F30000A2E40F094800A2BF0D18A4B8A4A1B68D3
:104F4000A02181E01846FFF791FE0420FFF70EF93B
:104F50003060B5E7092BE1D1270E00F07B81834B50
:104F6000814A1B689021C4F307461170EDB2FCB270
:104F7000002B00F09D80224631462846984797E056
:104F8000F02843D9F72841D0F1380E28C6D801A31C
:104F900053F820F04B5100002F5100001D5100002C
:104FA0001D4F00001D4F00000F5100001D4F00005D
:104FB000EF5100001D4F0000B9510000D351000017
:104FC000F75000001D4F0000DF500000C3500000EC
:104FD000674B1B78002BA1D00420FFF7C7F80346CE
:104FE000306000289AD00588002D7FF460AFFFF76D
:104FF0003DFE35602846BDE8F081FFF75DFEC4F355
:105000000740FFF759FE072E02D1200EFFF754FE8E
:10501000534B584A198858481468584D524A0170E1
:1050200000270E0AF0201F802E7010700CB3012292
:105030005348A0470120BDE8F081082B7FF46EAFF4
:10504000504B494A1B688021C4F307461170EDB2EA
:10505000240E6BB3284622463146984728E00B2E93
:1050600011D10B2B7FF45AAF474B3F4A1B68B0213D
:10507000EAE7464B1B68002B00F0FB80404898474E
:105080000120BDE8F0810C2E40F000810C2B7FF454
:1050900045AF3F4B344A1B68C0211170EDB2C4F3D9
:1050A0000746002B00F0C88028463146240E98475A
:1050B0003849314A314B0D7016701C700120BDE823
:1050C000F081354B1B68002B00F0D6809847C4F365
:1050D0000746254BEDB2240E83F80080E8E72F4BFE
:1050E0001B68002BF2D12E4B1B68A3B1FE20984702
:1050F000C4F30746EDE72B4B1B68002BE6D1284B8A
:105100001B6843B1FC209847C4F30746E1E7264BF0
:105110001B68002BDAD1C4F30746DAE7234B1B6880
:10512000C4F30746002BD4D030469847D1E7204B34
:105130001A68002AEFD0260C630C06F07F0003F4F7
:105140007E531843F6B29047C3E71A4B1B68C4F36B
:105150000746002BE8D1BCE790A2FF1FBEA3FF1FAC
:10516000BAA3FF1F6CA2FF1FB8A3FF1FA0A2FF1FBF
:105170003CA2FF1F68A2FF1FBCA3FF1FBDA3FF1F10
:10518000C0A3FF1F98A2FF1F9CA2FF1F80A2FF1FAA
:105190005CA2FF1FBFA3FF1F48A2FF1F4CA2FF1F5F
:1051A00050A2FF1F8CA2FF1F7CA2FF1F94A2FF1F13
:1051B00064A2FF1F78A2FF1F3F4B1B68002B85D105
:1051C0003E4B1B68002BA6D0FA209847C4F3074635
:1051D0007FE73B4B1B68002B7FF478AF374B1B6896
:1051E000002B98D0FB209847C4F3074671E7354B56
:1051F0001B68002B7FF46AAF304B1B68002B8AD0F2
:10520000F8209847C4F3074663E70E2B7FF486AE79
:105210002D4A2E4B1268E0211970002A47D0260C27
:10522000610C06F07F0301F47E511943EDB2A1F544
:10523000005128469047F6B2240E39E7FFF73CFDAF
:10524000C4F30740FFF738FD200EFFF735FD0020BF
:10525000BDE8F0811E4B1D4A1B6880211170EDB224
:10526000C4F3074683B1314628463A4698473C4640
:105270001EE70120BDE8F081104B1B68002B3FF4B6
:105280004AAFFF20984746E71C4611E70D2EBCD1D8
:105290000D2B7FF443AE0F4B0C4A1B68D0211170CD
:1052A000EDB2C4F30746002B7FF4FEAEC4E7C4F3AF
:1052B0000746EDB2240EFBE674A2FF1F50A2FF1FAB
:1052C00054A2FF1F44A2FF1F60A2FF1FB8A3FF1F2D
:1052D00098A2FF1F70A2FF1F70B5124E33788BB1DA
:1052E000114D286840B14388C218147A6CB9FFF791
:1052F000BDFC33782C602BB10220FEF737FF28600D
:105300000028F0D14FF0FF3070BD02880133934286
:1053100002D24380204670BDFFF7A8FC0023204640
:105320002B6070BD3CA2FF1FB0A2FF1F70B50D4ED9
:1053300033788BB10C4D286840B1438803441C7A04
:105340006CB9FFF793FC33782C602BB10220FEF789
:105350000DFF28600028F0D14FF0FF3070BD2046CF
:1053600070BD00BF3CA2FF1FB0A2FF1F38B5184D93
:105370002868F8B101884488A14213DD03191B7A1B
:1053800083B104F10803C2180C1B002302E012F8D9
:10539000011F21B10133A342F9D1204638BD1C467B
:1053A000204638BD0024FFF761FC2C6000F00EFBA6
:1053B000204638BD074B1B781BB900F007FB0020C7
:1053C00038BD0220FEF7D2FE28600028D2D1F4E7D3
:1053D000B0A2FF1F3CA2FF1F2DE9F04F3D4D01225F
:1053E00083B02A7071B3DFF8F8A0DFF8F880DFF837
:1053F000E89083460E46DAF80000002835D0364B98
:1054000001934488019BC4F14001B14228BF314659
:1054100067180022BFB21A70761A478000F108029E
:1054200049B1013C224459441BF8014B02F8014F99
:105430005945F9D147883F2F09D8284B05221A70C2
:10544000002ED8D10020287003B0BDE8F08F402294
:10545000224B02800146002401201C70FEF7FCFE56
:10546000CAF80040002EC6D1ECE798F800204AB3F5
:10547000194B019344F2D95401270BE0013C17D09A
:1054800099F80020A2B92A7000F0A0FA2F7098F8BD
:105490000020BAB10120FEF787FE0528EED82F7054
:1054A000FFF7C4FBCAF800000028AAD1013CE7D1ED
:1054B0000199012200234FF0FF300A702B7003B0D6
:1054C000BDE8F08F00234FF0FF302B7003B0BDE834
:1054D000F08F00BFA4A2FF1FACA2FF1FB4A2FF1F4A
:1054E000A8A2FF1F3CA2FF1F00B583B002AB0121A1
:1054F00003F8010D1846FFF76FFF03B05DF804FBDA
:1055000038B50E4D0E4C2B68012020702BB15888F9
:1055100000232370C0F1400038BD0A4B1B7813B93B
:105520000020207038BDFEF73FFE0528F8D8FFF7B1
:105530007DFB034628600028E9D1F1E7A8A2FF1F00
:10554000A4A2FF1F3CA2FF1F0F4B1B78DBB110B5BD
:105550000E4C2168B1B14B88A3B10D4800223F2BFE
:10556000027007DC07330B4401F1470003F8012FF9
:105570008342FBD140230B800120FEF76DFE002308
:10558000236010BD10BD70473CA2FF1FA8A2FF1FE3
:10559000B4A2FF1F0D4B1B78BBB910B50C4C216892
:1055A00003F0FF024B883F2B07DC07330B4401F16C
:1055B000470003F8012F8342FBD140230B800120D9
:1055C000FEF74AFE0023236010BD7047A4A2FF1F10
:1055D000A8A2FF1FF0B572B699B902688AB1037923
:1055E0000F2B0ED8274C218841FA03F5ED070AD579
:1055F00003F1007303F59063B2EB431F03D162B66E
:10560000F0BD204C2188002341FA03F212F0010280
:1056100007D00133102BF7D162B60022037102606C
:10562000F0BD01259D402943218062B6164E174DDD
:10563000174FDFF864E0D9B20171346844F0020416
:1056400034602C6844F002042C60A6F58026822485
:10565000A5F5802503F100733C6003F59063223EBD
:10566000243D0C4C8EF800105B01317029702170C4
:1056700003601A605A609A60DA601A615A619A612E
:10568000DA61F0BDB6A2FF1F408004403C800440B8
:10569000008000401F8000401A80004003790F2BDB
:1056A00011D8094A10B4137072B6084904790A88EF
:1056B0000123A34022EA03030B8062B610220023D9
:1056C00010BC0271036070471A800040B6A2FF1F31
:1056D00070B5EFF3108272B60C4C206880B10C4E9E
:1056E00000254369236073B19D6102B962B64577B5
:1056F00083689847EFF3108272B620680028F0D1D3
:1057000002B962B670BD3360EFE700BFB8A2FF1FF9
:10571000BCA2FF1FFFF7DCBF024A1368013313600E
:10572000704700BF58A1FF1F0368C9B21B68184724
:105730000368C9B21B6818470368C9B21B681847D9
:105740000368C9B21B6818474B0803F1376303F5B8
:10575000D83310B50446B3FBF1F000F03FFA044B28
:105760001B7803B110BD2046BDE8104000F0B4BE68
:10577000AC90FF1F08B5084600F024FC012008BDCE
:1057800008B5084600F01EFC012008BD38B50846E3
:105790000D4601F055FD04460146284600F01CFC6C
:1057A000204638BD10B508461446114600F014FCDA
:1057B000204610BD0846114600F03EBE0846114680
:1057C00000F020BE00F036BD08B5084600F0D2FB60
:1057D000003018BF012008BD08B5084600F0A8FB3E
:1057E000003018BF012008BD0846114600F03CBB40
:1057F000084600F073BB00BF084600F019BB00BFAD
:1058000000F0B4BA10B54B0803F13760144600F548
:10581000D830B0FBF1F000F0E1F92046BDE81040CF
:1058200000F052BA00F0E0BC00F09EBC00F088BC72
:1058300000F062BC00F06CBC704700BF0368F0B4BD
:10584000FBB1002501249D60DC601B4C1A601C44E8
:10585000241104F144056A11032692009E60174F3B
:105860000679174B47F8241002F1604202F56142B5
:1058700005F01F05012000FA05F5E6541560F0BC9F
:105880007047104C236843F40003236000BF0E4BA5
:105890000E4DA4F58734A4F59E7401261E602346A0
:1058A00004609C68002CD0D01033AB420360F8D168
:1058B000002303601846E2E7008FFCBF9C90FF1FA7
:1058C00044E400E03C800440007003404071034029
:1058D0000168A9B10B4BF0B40B441B110A4E0B4FDE
:1058E0000B4D46F8237003F1440202F01F0401231C
:1058F0005211A340002445F822308C600460F0BCB3
:10590000704700BF008FFCBF9C90FF1F39580000FC
:1059100080E100E0024A034B012111601B68184737
:105920000C7103409C90FF1F024A034B0121116040
:105930005B6818471C7103409C90FF1F024A034B91
:10594000012111609B6818472C7103409C90FF1F38
:10595000024A034B01211160DB6818473C71034088
:105960009C90FF1F30B5044683B002252A4601A84B
:105970000549FDF74FFE23682A4601A95B682046CA
:10598000984703B030BD00BF607A000008B5FAF751
:105990001FFFFCF783FA00F019F8FAE701F01AB9D3
:1059A00001F020B9704700BFFFF7C0BCFFF794BCFF
:1059B000FFF7DCBCFFF7C8BDFFF7A2BD08461146E4
:1059C000FFF70ABD0846FFF78FBD00BF2DE9F8437A
:1059D000314E337893B1314F3A787AB90122D907F1
:1059E0003A7036D49A0719D400225B073A7005D56D
:1059F0002B4B1A6812B1EFF305820AB1BDE8F883A8
:105A0000EFF3108172B6186818B1264C2278002A7C
:105A10002ED00029F2D162B6BDE8F883DFF890807D
:105A200098F80020002ADFD0DFF88890002405E0F5
:105A3000013498F80030E4B2A34212D959F8245046
:105A40002B6828461B6998470028F1D02B69984796
:105A5000EEE7FFF78BFCC8B9134B1B781BB9337803
:105A6000C0E73378C0E7337803F0FE033370B9E75B
:105A700045691D60012323705DB1AA6101B962B659
:105A800000254577836898472570B7E700F04CFDFF
:105A9000E2E7064B1D60F1E7C090FF1FC9A2FF1FA0
:105AA000C4A2FF1FC8A2FF1FC691FF1FC0A2FF1FF5
:105AB00078A3FF1F6CA3FF1FF0B44D1E2E460024D9
:105AC00000E00134B0FBF2F302FB1300092800F1FF
:105AD00030078ABF3730F8B2C0B206F8010F184657
